:1000000098190020491D0000AD5D0000351D00005D
:10001000351D0000351D0000351D0000351D000098
:10002000000000000000000000000000991E000019
:10003000351D000000000000451E0000351D0000B9
:100040000D2000000D2000000D2000000D200000FC
:100050000D2000000D2000000D2000000D200000EC
:100060000D2000000D2000000D2000000D200000DC
:100070000D2000000D2000000D2000000D200000CC
:10047C0053B94AB9002908BF00281CBF4FF0FF31FF
:10048C004FF0FF3000F00CB8ADF1080C6DE904CE64
:10049C0000F010F8DDF804E0DDE9022304B0704749
:1004AC00704700BF034613F8012B002AFBD1181A22
:1004BC00013870472DE9F04786468C460846089E61
:1004CC00154674461946002B40F0C1808542B2FA9D
:1004DC0082F245D94AB1C2F1200300FA02FC9540E0
:1004EC0094402EFA03F343EA0C0C4FEA154EA8B2D3
:1004FC00230CBCFBFEF80EFB18CC08FB00F943EAFE
:10050C000C43994528D9EB1808F1FF3704D29945CB
:10051C0002D9A8F102072B44A3EB0903A4B2B3FB45
:10052C00FEFC0EFB1C330CFB00F044EA0344A0421F
:10053C0014D92C190CF1FF3304D2A04202D9ACF11E
:10054C0002032C44241A43EA07401EB1D440002372
:10055C0034607360BDE8F0874746DDE76346F1E73A
:10056C0092BB431B01214FEA154EAFB2200CB3FBDB
:10057C00FEFC0EFB1C330CFB07F840EA03439845CA
:10058C0061D9EB180CF1FF3004D2984502D9ACF1CB
:10059C0002002B44A3EB0803A4B2B3FBFEFC0EFB3E
:1005AC001C330CFB07F744EA0344A7424DD92C1922
:1005BC000CF1FF3304D2A74202D9ACF102032C4454
:1005CC00E41B43EA0040C0E7C2F12003954094408D
:1005DC0020FA03F12EFA03F34FEA154E9040AFB216
:1005EC000343B1FBFEFC0EFB1C10190C0CFB07F8B3
:1005FC0041EA0041884522D969180CF1FF3004D238
:10060C00884502D9ACF102002944A1EB08019BB248
:10061C00B1FBFEFC0EFB1C110CFB07F743EA01437C
:10062C009F420ED9EB180CF1FF3104D29F4202D934
:10063C00ACF102012B44DB1B41EA004193E760461D
:10064C00E3E76146F7E76046A4E76346B8E7834211
:10065C0006D916B9002108467CE7C6E900E0F9E79F
:10066C00B3FA83F78FB9834201D3724508D8BEEB36
:10067C00020460EB030301209C461EB9002169E7CC
:10068C003846FAE7C6E9004CF8E7C7F1200CBB4046
:10069C000EFA07F522FA0CF42EFA0CF1BA401C43B0
:1006AC0020FA0CF3B8404FEA144901431FFA84FEB8
:1006BC00B3FBF9F809FB18300B0C08FB0EFA43EAF4
:1006CC0000439A4540D9E31808F1FF3004D29A450B
:1006DC0002D9A8F102002344A3EB0A0389B2B3FBAD
:1006EC00F9F809FB183308FB0EFE41EA03418E456D
:1006FC002CD9611808F1FF3304D28E4502D9A8F128
:10070C000203214443EA0040A1EB0E01A0FB029836
:10071C004145CE46434602D306D14D4504D201385D
:10072C00B9EB020E68EB0403002EA7D0B5EB0E025A
:10073C0061EB030101FA0CFC22FA07F3F9404CEAD5
:10074C000303C6E9003199E74046C5E74346D9E7BC
:10075C00F0B560F07F038DB08DF8083000238DF874
:10076C000930ADF80C3002AB04930223012604AA25
:10077C00069203AACDE90823059308ABCDE90A3606
:10078C00104B05460F461868079683680E491C687F
:10079C0006AA0AABA047044660B99DF80D303B7021
:1007AC0003210093094A2B46094805F0E9FA204633
:1007BC000DB0F0BD074A03463146054805F0D6FAA0
:1007CC00F5E700BFA807002040000020BC71000026
:1007DC00C86F0000DE71000030B51B481B4B85B0A4
:1007EC00186005F0CFFD38B9194A0121194805F0F8
:1007FC00B4FA4FF0FF341CE00321174A154805F0FA
:10080C00ACFA0F200DF10F01FFF7A2FF0446C0B99F
:10081C009DF80F506C2303210093104A2B460D4872
:10082C0005F0AEFA6C2D07D103210D4A094805F0ED
:10083C0094FA204605B030BD02210A4A054805F05D
:10084C008CFA094AD1E700BFE4660000A807002033
:10085C00F2710000C86F0000077200002E720000D9
:10086C005B72000088720000A27200002DE9F74351
:10087C000321324A324805F070FA324804F0A5FEE2
:10088C00314804F0A2FE314804F09FFE304804F0D9
:10089C009CFE002503212F4A294805F05EFA2C46C0
:1008AC00FFF79AFF274FDFF8A080DFF8A0902646CD
:1008BC0084F001042146384604F073FE314640466C
:1008CC0004F06FFE2146484604F06BFE01353146BC
:1008DC001F4804F066FE0A2D23D1002303211E4A73
:1008EC00174805F043FA0F200DF10701FFF730FF11
:1008FC009DF80730D8B96C2B19D106250321174A5E
:10090C000F4805F033FA164B9E68012173691448A1
:10091C00984740F21B60002104F0CCFA013DF4D161
:10092C000025002141F66A0004F0C4FABFE701215A
:10093C000C4A034805F01AFAF2E700BFC172000036
:10094C00C86F00004070000038700000307000006C
:10095C0028700000F07200001E7300004B73000042
:10096C00A46600007A7300002DE9F04F91B000935B
:10097C0002F004030293C2F3C20301338407054659
:10098C000E46DDF868800392059340F0BB81041D90
:10099C0030B1072909D86FF01B0011B0BDE8F08FFA
:1009AC0001F007063444C6F10806009B4FF000091D
:1009BC004FF0040A591E4FF0FF334F460193CB46BC
:1009CC005346CDF810900DB1009A2260059800287E
:1009DC0000F3E8809848009A824203D397488242F9
:1009EC00C0F0E080039AA4EB050E92074FEA9E003C
:1009FC0000F103810F2F00F2B180002D00F0058172
:100A0C0007F140020DEB020C019A0CF8200C0CF8CB
:100A1C00102C049801300490E7E07A285DD84B281C
:100A2C000ED8472859D829282DD8252852D054D843
:100A3C0020287AD02338D0F1000B4BEB000B74E05C
:100A4C004C382E2849D8DFE800F070484848484810
:100A5C004848484848484B484848484848484859F6
:100A6C00484B4B595959704B6D487048184B1848A6
:100A7C0048827F4B48484B487F0000204FF0000BCA
:100A8C004FF0040A38E001222A38C0B202FA00F012
:100A9C0010EA0E0F49D110F0625C2FD110EA020B54
:100AAC0043D06046013C5444B4FBFAF40AFB04F412
:100ABC00002D61D0A3EB050CA444B4453FF66BAFFD
:100ACC00002868D1042B47D158F8043B2360042339
:100ADC0004342AE0019A013A01924FF0000B24E011
:100AEC0011F8010C6C2834D1002011F8023C83461B
:100AFC006C2BC5D14FF0080A5346D3E708F1070811
:100B0C0028F00708073424F00704F8E802AB35B1E5
:100B1C0006982044B0423FF63EAFC4E900AB4FF01C
:100B2C00000B08344FF0080A534611F8010F002847
:100B3C0078D0BBF1000F7FF470AF2528F5D14FF0C2
:100B4C00010B019B013301934FF0040AECE758466B
:100B5C0094E700208346A5E7082B02D06FF0150020
:100B6C001BE708F1070828F00708F8E80223C4E996
:100B7C00002308230834D8E768B9042B02D108F104
:100B8C000408A4E7082BE9D108F1070828F00708A6
:100B9C0008F10808EDE7059A013A059258F8042B7C
:100BAC00009210E7039A900720D54FF0010CA4EBAC
:100BBC00050E4FEA9E00BEF5007FCFD20F2FCDD889
:100BCC00F5B107F140020DEB020E019AC0B20EF81E
:100BDC00200C0EF8102CBCF1000F3FF41AAF60F093
:100BEC007F000EF8200C09F101090137C5F108024C
:100BFC004FF6DA7E0434069297E74FF0000CDAE7F2
:100C0C00BCF1000F01D00136EFE702980236002844
:100C1C00EBD10098CDE90631FFF744FCDDE9063154
:100C2C000644E2E7631BB3F5806F97D245B9A6F192
:100C3C000804E018B1E600BF6C660000D87C000028
:100C4C00029A9B0828602B709DF81030C2B1EB7093
:100C5C0085F80290B9F1000F05D0002208A8C5F163
:100C6C00010C97420ED14FF0000AC5F101030DF1B2
:100C7C00200801930DF1300B574512D1601B8CE607
:100C8C006B70E5E710F8013B190608D50CEB040E68
:100C9C00B64503F07F033FF67EAE04F8013B01320C
:100CAC00DFE7B9F1000F03D098F90020002A17DB19
:100CBC00029BD3B11AF80B2004F8012B0022019BE4
:100CCC0018191044B0423FF666AE98F8000000992F
:100CDC0004F8010B2046039205F0A2FC039A14447D
:100CEC000AF1010A08F10108C6E798F8002055F846
:100CFC0022300093029B009845F82230FFF7D2FB7C
:100D0C00421CDCE76FF00D0047E600BF2DE9F04F09
:100D1C0097B000AFD7F880B03B62CBF3C00304466A
:100D2C00894690F802A0FA62BB6141B94578007817
:100D3C000AEB800020444D4517D8A0EB0409E3785A
:100D4C00FB61BAF1000F02D01BF0010F16D1FB6949
:100D5C0053BBFB6A1BB1494620463A6A98474D463D
:100D6C0028465C37BD46BDE8F08F461C3046FFF781
:100D7C0099FB0130304409F10109DCE76268237802
:100D8C007A62FA6A9900796104EB8301002A40F0D7
:100D9C0001810E464FF000084D4601EB0A094E4505
:100DAC004CD101EB0A0610E01BF0020FD1D02378D6
:100DBC009A007A61626804EB83017A62FA6A002A0B
:100DCC0077D14D46904601EB0A061BF0050F0CBF80
:100DDC0002230123FB62FB6906EB430A0BF00203BF
:100DEC00BB625645BCD016F8021B16F8013C54F8F1
:100DFC002390994B994502D3984B994536D3BB69AF
:100E0C00002B40D0786A04F05FFC00283BD0E94608
:100E1C008AB06A46924B53617B6AC2E906314FF441
:100E2C00007313848F4B42F8103F00234FF4125180
:100E3C008D4800F0DFFB023DCD46D2E716F8013BB2
:100E4C00F96254F82300FFF72DFBD7F88430F96AC8
:100E5C0001304BB1D7F8883098453EBFD7F8843075
:100E6C0023F8180008F10108054498E7BB6923B181
:100E7C00786A04F029FC0028C9D11BF0010F05D1B8
:100E8C00FB6AED1AADE7BB6A002BAAD04846FFF708
:100E9C0009FBD7F8843053B1D7F8883098453FBF59
:100EAC00D7F88420431C22F8183008F101080544B7
:100EBC0097E7BAF1000F73D01BF0040673D0D0463D
:100ECC00002607F1480052463B61B96205F0A8FBC9
:100EDC00B96A3B6901EB0A02BA62FA69F969520014
:100EEC00FA60BA6A02EB41023A610BF00202BA6094
:100EFC003A69B96A8A4258D162781BF0020F18BF5E
:100F0C0000217A6208BF4FEA5801B2181BF0010F9A
:100F1C00D2B240F09F801BF0040F14BF404600205B
:100F2C00BB616270A070E17020463A6A7969FB6A15
:100F3C009847051EFFF614AFBB69414623707B6AC8
:100F4C003A6A6370FB6984F802A0E37007F1480009
:100F5C00FB6A9847B0F10008C0F2BA807B69A9EB34
:100F6C000A01C91AFB683A6AC91AD7E90A039847F1
:100F7C000028C0F2AF804FF0000BA84408EB00052E
:100F8C0007F1380AB34571D300213A6A0846FB6A67
:100F9C009847E5E656464FF0000807F1380092E70F
:100FAC005646D04696E7B04694E7BA6A12F8021B4A
:100FBC0012F8015CBA6254F82500274A904202D319
:100FCC00264A90421ED3BA6932B1786A7B6004F02B
:100FDC007BFB7B6800288BD1BA6802BB08F1280226
:100FEC0007F1300C08F10100944407F1580208F1A4
:100FFC00020852FA80F00CF8101C5FFA88F800F81E
:10100C00105C75E7BA693AB1786A7B6004F05CFBF6
:10101C007B6800287FF46CAF1BF0010F09D006F140
:10102C00280207F13000711C161806F8205CCEB2AD
:10103C005EE71BF0040F3FF45BAF08F1280207F1E9
:10104C00300008F1010102EB000808F8105C5FFAAF
:10105C0081F84DE7002063E76C660000D87C000047
:10106C00B173000004000001B06F00001BF80A30DF
:10107C0054F8239087F83730D7F884302BB3D7F84F
:10108C0088309B4521D2D7F8843033F81B8001215E
:10109C003A6AFB6A07F13700984700281ADB0544C7
:1010AC00B8F1000F06D14846FFF7FCF900F1010832
:1010BC001FFA88F8414648463A6AFB6A9847002866
:1010CC0008DB05440BF1010B5CE74FF00008DEE791
:1010DC00454645E6054643E680B505460E461746A9
:1010EC00984603F039FF034605F0B0FA0446DFF8E2
:1010FC001890424649F8003039463046A84754F813
:10110C00090000F083FE00BF080000002DE9F04745
:10111C00044607464FF00109DFF8508014B93846F1
:10112C00BDE8F08794FAA4F5B5FA85F509FA05F34C
:10113C002E0108EB05156FEA030A24EA03042B7B46
:10114C00002BEBD058F806301B694BB9464473683A
:10115C0004222846196807EA0A0704F08FFDDDE728
:10116C00284698470028D9D1F0E700BFF06F00005F
:10117C0030B5002289B00F490F4805F029FA00223A
:10118C0000230024CDE906230E230C4DCDE90334B6
:10119C004FF440722846CDE90144094B09490094AB
:1011AC0003F05EFC0849284605F037F9204609B0E3
:1011BC0030BD00BFD9110000C0050020380100204F
:1011CC00C11400005809002065740000014803F0A8
:1011DC0075BB00BF280100202DE9F047804621484F
:1011EC000F4604F022FD0646002833D00025284681
:1011FC00BDE8F087237B83B12368DB680BB1204605
:10120C009847636883F8069023681B69D3B96368B1
:10121C0004222046196804F031FD0136103454457F
:10122C00E8D3B8F1000FE2D0002DDFD02846FFF74D
:10123C006DFF0546002FF7D0002140F2391003F066
:10124C0039FEF1E7204698470028E0D009FA06F36A
:10125C001D43E2E705464FF00109034CDFF80CA0F3
:10126C00DDE700BFBC070020F06F0000F06F00004E
:10127C0010B5044C237813B9034803F01FFB01236A
:10128C00237010BD400900202801002010B5044631
:10129C00094804F0CAFC3CB1084BD3E8EF1F0139F4
:1012AC00C3E8E21F002AF8D1054805F09DF9BDE816
:1012BC001040044803F002BBB4070020B80700201C
:1012CC00C00500202801002000200146034BD3E874
:1012DC00EF0FC3E8E21F002AF9D17047B4070020D2
:1012EC0070B5FFF7F1FF0546074C084EB44200D32A
:1012FC0070BD63685B792BB123685B6813B12946B9
:10130C00204698471034F1E7F06F0000F06F0000B2
:10131C0010B5044C0449204604F00DFB034B1C6033
:10132C0010BD00BFEC00002048700000AC0700208E
:10133C0000230C4A10B513700B4A13600B4A136050
:10134C000B4B0C4A1A60FFF7E3FF0B4B0B4918468B
:10135C008B4200D310BD1A1A5C6812110132227133
:10136C001033F5E741090020B4070020B80700202E
:10137C0054000020495C0000F06F0000F06F00008A
:10138C00014600220023014804F0F6BAEC000020CC
:10139C00014804F08FBB00BFEC000020024B01465B
:1013AC00186804F0DBBB00BFAC070020014804F058
:1013BC0010BC00BFEC00002070B5274B187800283B
:1013CC0049D0FFF7E5FF0546002841D1234B244CBB
:1013DC001B68002B19DD05F0F9F84FF47A75A0FBAA
:1013EC00050647F61222002305FB0161FFF740F8C2
:1013FC00D4E90032C01A40F2E93361EB02019842A1
:10140C0071F1000101D3FFF76BFFD4E9003213F542
:10141C007A7342F10002C4E90032BDE87040FFF774
:10142C00C5BF63685B7923B12368294620461B68D6
:10143C0098471034B442F4D32846FFF7AFFF094B5A
:10144C00D3E8EF1F0139C3E8E21F002ABED0F7E74B
:10145C00054C064EEEE770BD40090020B407002095
:10146C00B8050020B8070020F06F0000F06F0000F6
:10147C0070B50D4D297861B90120FFF7ADFE0B4C0D
:10148C000B4EB44206D3FFF797FF0028FBD1012384
:10149C002B7070BD63685B791BB1236820469B6819
:1014AC0098471034EDE700BF41090020F06F0000B1
:1014BC00F06F000000212DE9F0470846FFF78CFE85
:1014CC00044658B340F21B684FF0000905F0BEF813
:1014DC001B4B1C4A1B58136033B11B4B1B68092B4D
:1014EC0002DD1A4803F0EAF90025194FDFF85CA079
:1014FC0044B12046FFF70AFE044618B94FF0FF38F6
:10150C004FF0FF39FFF758FF064628B9B5B94246E8
:10151C004B46504603F006FA3546E9E74FF0FF38E4
:10152C004FF0FF39D2E72B689B691BB1002228468C
:10153C00114698471035BD42F5D3E8E7054DFAE75B
:10154C0008000000B0070020B80700202801002088
:10155C00F06F0000F06F000013B5184804F065FB45
:10156C00174B1B7873B1EFF31184202383F312888C
:10157C00BFF36F8FFFF720FF84F31188BFF36F8FDA
:10158C0002B010BD0F4B1B68002BF9D050B90022D4
:10159C0000230D48CDE9002347F61222002303F067
:1015AC00C5FFEDE70928EBD1074805F01DF8074802
:1015BC0002B0BDE8104003F081B900BFB8070020AD
:1015CC0041090020B0070020C005002028010020A0
:1015DC0010B5064B04461B6898472146A06004488A
:1015EC0004F049FABDE81040FFF7B6BF54000020E4
:1015FC00EC0000202DE9F04F8FB0C1F34A2804AF66
:10160C000D469146B8607B600C0DB8F1000F63D0AD
:10161C0000264FF0040B4FF00A0A07F11403C7F829
:10162C000C80C7E907667E620193CDF808B0CDF84F
:10163C0000A007F11C0332464846F968FFF766FB29
:10164C00B0F5006F03461CD36C468AB0D9F8041071
:10165C0004AB26481A46C3E9050140F2FF71D96173
:10166C004FF400711984224B42F8103F4FF4125181
:10167C0033462048FFF7BEFFA5462C37BD46BDE8D4
:10168C00F08FC0F30A0804F11700184420F007008B
:10169C0080083B60FFF774FE68F35325044690B155
:1016AC003B6800F11001C7E9083607F11403F96132
:1016BC00CDE900A3CDF808B048460F4AF96807F108
:1016CC001C03FFF723FB68F353252A4620467B684F
:1016DC00B96804F0F2FAD0E704F1170020F0070023
:1016EC008008FFF74DFE0446EDE700BF7A7400005A
:1016FC0004000001B86F00009B5C00002DE9F04F66
:10170C0087B00446DDE9105ADDE912799346984614
:10171C000391BFB13B46524610210020CDF80090FA
:10172C00CDF81490FFF720F9B0F5006F06460AD3F8
:10173C0040F2FF730221174A174807B0BDE8F04F7B
:10174C0004F014BB3E4605F11700304420F00700AE
:10175C008008FFF715FE04F007040BF0070BE400FC
:10176C0044EA8B1444EA462444EA0554054640B145
:10177C003FB13B4652463146CDF800901030FFF752
:10178C00F3F8434622462846039907B0BDE8F04FCC
:10179C0004F093BAB9740000B86F0000014B0360F9
:1017AC00002070475C70000008B5044803F0B1FFDE
:1017BC00BDE80840024803F0ACBF00BFF174000064
:1017CC00267500002DE9F04706460C4600AF0029AF
:1017DC0036D0D1E90012E9468AB06D46A3684FF0C5
:1017EC00050AA8461F48C5E90723C5E9050148F8BD
:1017FC0010AF002342464FF421511B48FFF7FAFE6D
:10180C00D4E90312CD466369AD461848C5E90723F0
:10181C00C5E90501C5F810A0002342464FF421513B
:10182C001148FFF7E7FECD46E3690121104A0E4847
:10183C0004F09CFAA36901210E4A0B4804F096FAB5
:10184C00012E07D1EFF305830B4A31460648103BB6
:10185C0004F08CFA2146304602F09EFEBD46BDE8EF
:10186C00F08700BF54750000D86F0000837500002E
:10187C00B2750000C1750000EF75000030BFFFF7B6
:10188C00FDBF00BF2DE9F04105460B4EDFF82C8063
:10189C00324606EB0807CC1B2046094904F0C0FE73
:1018AC00A01942460021083C04F0C7FE2C6707F142
:1018BC000800BDE8F08100BF00000000040000003B
:1018CC00F06F0000054B5A699B689A421FBF044A8F
:1018DC00536843F080535360704700BF14090020D5
:1018EC0000ED00E070B52A4C06460D4629482A4901
:1018FC0004F05DFAA36ADB0647D52648274904F0B5
:10190C0056FA1120A36A1C0704D52248244904F076
:10191C004EFA12201E4CA36A990712D521491D4874
:10192C0004F045FA636BA26A120609D501211E4A1E
:10193C00184804F01BFA1EB1A36A23F08003A362BB
:10194C001320134CA36ADE0704D51248174904F080
:10195C002EFA1420A36A9C0604D50E48144904F0F0
:10196C0026FA15200A4B9A6AD10658BF9A6A9A6AC7
:10197C00920642BF5A6A22F400525A629A6A42F0A4
:10198C00FF029A6200232B7070BD1020BAE700BFD3
:10199C0000ED00E0D86F0000027600001876000021
:1019AC004B7600005E760000767600008C760000A8
:1019BC00AB76000010B5244C2449254804F0F7F907
:1019CC00A36A99013ED52248224904F0F0F91E2061
:1019DC00A36ADA0104D51E481F4904F0E8F91F2058
:1019EC00194CA36ADB0204D519481C4904F0DFF931
:1019FC002020A36A1C0304D51548194904F0D7F913
:101A0C002120114CA36A590304D51148154904F03F
:101A1C00CEF92220A36A9A0304D50D48124904F08A
:101A2C00C6F92320084CA36ADB0304D508480F49E8
:101A3C0004F0BDF92420A36A6FEA03436FEA134351
:101A4C00A36210BD1D20C3E700ED00E0DA760000B4
:101A5C00D86F0000F2760000057700001F770000B9
:101A6C0049770000677700008C770000A6770000AC
:101A7C0070B5294C06460D462848294904F097F9BB
:101A8C00A36AD9043CD52548264904F090F91720BF
:101A9C00A36A1A0504D52148234904F088F91820B3
:101AAC001D4CA36A9B0512D51C48204904F07FF9F4
:101ABC00A36BA26A100409D501211D4A174804F032
:101ACC0055F91EB1A36A23F40043A3621920124CEA
:101ADC00A36A590504D51148164904F068F91A206F
:101AEC00A36ADA050ED50D48134904F060F91B20E2
:101AFC00094A936A43F47F43936200232B7070BDB1
:101B0C001620C5E7A36A9B04F2D504480B4904F0E0
:101B1C004EF91C20ECE700BF00ED00E0D86F000090
:101B2C00D1770000E77700004B760000F8770000D3
:101B3C00117800002678000041780000AB76000098
:101B4C002DE9F0418AB0654B0446D3F80480002699
:101B5C0000AFC8F3080586F31188BFF36F8F02F04E
:101B6C007F43B3F17F4F07D102F00C03082B12D146
:101B7C005B495C4804F01BF9002634460023FB71DA
:101B8C00EB1E092B00F28980DFE803F00A7F827BD1
:101B9C0087878787878510074CBF0C460126EDE7A2
:101BAC005149504804F003F900234C4DFB71EB6A8A
:101BBC009A0705D54D494B4804F0F9F8002331E05C
:101BCC00EB6A002B01DA4A49F5E7EB6A5B00F5D5C5
:101BDC004849444804F0EBF86B69A26943F48073FC
:101BEC006B61BFF34F8FBFF36F8F6B6932F8022CB1
:101BFC0023F480736B61BFF34F8FBFF36F8F4DF680
:101C0C0002739A4207D0AB6ADBB26BB30120F91DA9
:101C1C00FFF768FE37E023680121374A314804F0AA
:101C2C00A5F82368FA79DAB907F1080504F1200C54
:101C3C002A4620686168083403C264451546F7D10A
:101C4C007A6A002E45D0C2F3080121B96FEA5222FC
:101C5C006FEA42227A62184607F10801FFF7B2FDDB
:101C6C002837BD46BDE8F081AB6A13F47F4F04D032
:101C7C000120F91DFFF7FCFE05E0AB6AB3F5803FD0
:101C8C009CD3FFF797FE0346CCE70020F91DBFE776
:101C9C000020F91DEEE719498DE7194A18F4F87F71
:101CAC00E8468AB0174B18BF13466A461649103DD2
:101CBC00C2E905134FF400731384144BD56142F839
:101CCC00103F00234FF411510648FFF793FCC54613
:101CDC0074E722F4FF7222F00102BBE700ED00E092
:101CEC0087780000D86F0000B2780000C978000037
:101CFC00EA780000F87800001779000033790000CA
:101D0C006E7800005978000057790000040000013B
:101D1C00044B5A6942F010025A615A6922F00802C7
:101D2C005A61704700ED00E0EFF30880EFF3098192
:101D3C0001B57246FFF704FF01BD00BF002080F320
:101D4C001488BFF36F8F002080F30A8880F30B8810
:101D5C000F4880F3088801F013FA00200D49086041
:101D6C00BFF34F8F00F02CF8202080F311880A4825
:101D7C004FF40061401880F30988EFF314800221BE
:101D8C00084380F31488BFF36F8F00F0D7F800007E
:101D9C009819002094ED00E0580C00200023184600
:101DAC000649D1F89020C2F30722934200DB70471A
:101DBC00C1F89830C1F8A0000133F6E700ED00E05F
:101DCC0010B572B6002484F31388FFF7E7FF23469F
:101DDC004FF0FF300C4A03F120010133102B42F875
:101DEC002100F8D100234FF0FF30074A03F16001C6
:101DFC000133102B42F82100F8D162B6BFF34F8F9C
:101E0C00BFF36F8F10BD00BF00E100E0084B9B6873
:101E1C0083420BD1EFF3058343B1064B5A6842F072
:101E2C0080525A605A6A22F400425A6203F09AB8FD
:101E3C001409002000ED00E011498A684FF03000D1
:101E4C001044EFF3098C80E8F01F202080F31288F7
:101E5C00BFF36F8F0B4F4FF000664A698A603E608C
:101E6C00106F094C2060506F0023536780F311886A
:101E7C0002F1300090E8F01F8CF3098870470000E5
:101E8C001409002004ED00E0C00700201EF0040F30
:101E9C000CBFEFF30880EFF30980816911F8021C85
:101EAC000229FFD001B5724603F076FF01BD00BFD9
:101EBC0000B2002807DB01234109034A00F01F0090
:101ECC00834042F82130704700E100E000B2002866
:101EDC000CDB01220649430900F01F00824020332D
:101EEC0041F82320BFF34F8FBFF36F8F704700BFB4
:101EFC0000E100E000B2002801F10101ACBF00F1EB
:101F0C006040064B4FEA4111C9B2ABBF00F56140CE
:101F1C0000F00F0080F800131954704714ED00E026
:101F2C00044B054A23F07F039360BFF34F8FBFF33D
:101F3C006F8F70470000000000ED00E008B5FFF760
:101F4C00EFFF074AD2F8883023F47003C2F88830C8
:101F5C0002F00EFC03F028F900F042F802F048FC05
:101F6C0000ED00E042F8203C009B0B4942F81C3C81
:101F7C00019B21F0010142F8183C029B42F8081C1D
:101F8C0042F8143C4FF0807342F8043C0023203A92
:101F9C0002654367704700BFE510000000B5094BB0
:101FAC0015469860026F084B0E461A602C4686F355
:101FBC0009880020054B9847204600210022002369
:101FCC00034C204714090020C0070020CB5D000003
:101FDC00E51000001022014B1A61704700ED00E083
:101FEC000023202040F20F1210B5044CE1180133ED
:101FFC00934281F80003F9D110BD00BF00E100E06D
:10200C0008B5EFF30583064A103B02EBC30152F807
:10201C00330049688847BDE80840FFF753BC00BF50
:10202C00046700001FB5094C094A234601210948E1
:10203C0000F012F900230393074B0121E41A01A8C5
:10204C000193029400F012F904B010BD00F00220CC
:10205C00000000205C7000003801002010B50C7AE4
:10206C000B6804F01F0223F01F031A43CB686409AA
:10207C0023F01F03054943EA440343F00103C1F86D
:10208C009800C1F89C20C1F8A03010BD00ED00E014
:10209C0010B50A4BD3F89030C3F30723013B984299
:1020AC0008D901210346064A064803F05FFE6FF08B
:1020BC00150010BDFFF7D2FFFBE700BF00ED00E0FD
:1020CC006E790000D06F00002DE9F04F8946144660
:1020DC0006464FF00008514D85B0C84527DAD6F8B2
:1020EC0004A0BAF1000F44D0BAF11F0F17D91AF09F
:1020FC001F0F14D1D6F800B01BF01F0F0FD158468C
:10210C0003F071FE07460AEB0B00013803F06BFE7F
:10211C00874210D06FF01507414A3B4601E0434619
:10212C00404A0121404803F021FE6FF0150420467F
:10213C0005B0BDE8F08F17F1160FEDD0BC42EBDD0A
:10214C00C5F89870D5F89C10C5F89870D5F8A030E3
:10215C0021F01F0143F01F0BD6E900321A449942BB
:10216C0002F1FF3A1DD1D34507D13146F8B203F045
:10217C0043FE08F101080C36AFE73146C5F89870FC
:10218C00D5F89C3022F01F0203F01F031343C5F84F
:10219C009C30E0B203F030FE10F1160FC5D0441C99
:1021AC00E7E7C5F89870D5F8A020013B23F01F0392
:1021BC0002F01F021343D3453146E0B2C5F8A030FC
:1021CC00E8D003F019FE10F1160FAED0C5F89870D8
:1021DC00D5F89C209DF808300BF1FF3B62F304030B
:1021EC008DF80830D5F8A0309DF808205B0863F313
:1021FC0047128DF80820D6E900321344009323F0DF
:10220C001F035B44A3EB0A03013023F01F03694651
:10221C00C0B20393FFF73CFFBEE700BF00ED00E048
:10222C00B779000094790000D06F00000522044BB0
:10223C00C3F89420BFF34F8FBFF36F8F704700BF6D
:10224C0000ED00E0BFF35F8F0022024BC3F8942037
:10225C00704700BF00ED00E010B5034C2278FFF78B
:10226C0033FF207010BD00BF420900202DE9F74F4D
:10227C00294D8A4606464FF00008AB46274FD045FD
:10228C001BDAD6F80490B9F1000F3FD0316808463C
:10229C00019103F0A8FD0199044609EB01000138F6
:1022AC0003F0A1FD84424FF014021D4B08D002FB39
:1022BC0008F36FF015024BF8032003B0BDE8F08F64
:1022CC0014F1160F2C60F8D01978A142F5DD02FB41
:1022DC0008B0C7F89840C7F89840D7F89C4000F170
:1022EC000801007B64F304000871D7F8A0000C7996
:1022FC00400860F347140C71D7F89C1021F01F01B3
:10230C006960D7F8A01021F01F01296108F10108BC
:10231C0014350C36B3E700BFC407002000ED00E015
:10232C0042090020F0B54149414CD1F89030256864
:10233C00C3F307239D4287B075D80020FFF782FFB7
:10234C003C4BC1F8C030854216D13B4C01A82570DE
:10235C00FFF724FA00250646384FAE4213D1002071
:10236C0023783249D1F89020C2F30722934254DBF0
:10237C00FFF75CFF00202FE0616801EB0011FFF715
:10238C006DFE0130DFE70199280101EB0513DA68D6
:10239C003A40B2F5001F21D0B2F5800F2BD0B2F528
:1023AC00801F38D15A689B680958013B22F01F00E6
:1023BC0003440120844623F01F0340EA4C10CDE96E
:1023CC0002218DF8100002A920780593FFF760FE1A
:1023DC0000281DDA6FF0150007B0F0BD5A689B6835
:1023EC000958013B22F01F0003444FF0020C01205E
:1023FC0023F01F03E1E75A689B680958013B22F060
:10240C001F0003444FF0000C062023F01F03D4E7F9
:10241C0023780133237001359FE7C1F89830C1F858
:10242C00A00001339EE74FF0FF30D5E700ED00E050
:10243C0068700000AAFF4400420900200000F0FF71
:10244C0008B50649064821F00701C1F1005202F512
:10245C003C3203F0FCF8002008BD00BF9F1900209F
:10246C00D807002008B5034A034B1A6000F018F88F
:10247C00002008BD0020A107CC00002048B1054B6E
:10248C00054A1B68B3FBF2F35843044B43F00103BA
:10249C0018477047CC00002040420F00107000001D
:1024AC000122024BC3F80424704700BF002008E04F
:1024BC002DE9F04340F206354668D00648BF0320AC
:1024CC00337B02EA050558BFC2F3401087B001F018
:1024DC001F07B5F5837F144647EA43178DF80300B1
:1024EC0045D00FD8062D44D007D8B5B1022D14D045
:1024FC006FF0150007B0BDE8F083B5F5807FF7D11C
:10250C0001250AE040F20222954234D0B5F5407F15
:10251C0033D0B5F5007FEBD1042522032FD5012351
:10252C0072688B405360326982BB5F2F07F01F03C8
:10253C004FEA571177D83E4A52F8212084F4803163
:10254C0002EB8302D2F88030C1F30041C4F3404463
:10255C0023F4706344EA410423F00F031C4344EA60
:10256C00800444EA0524C2F880400020C2E7092513
:10257C00D3E70825D1E70625CFE70525CDE763038B
:10258C0041BF012372688B409360CCE7103639460B
:10259C0030460DF1020201F043FA14F4403F80463C
:1025AC000CD13946304603F05EFE224B9845DCD107
:1025BC0030469DF8021001F09FFAD6E74FF0000963
:1025CC0001AB3946304603AACDE90439CDE901996E
:1025DC00CDF80C9001F096F8164B984288D114F473
:1025EC00003315D09DF8033084F48034C4F30044D8
:1025FC008DF80E3039464B46304603AA8DF80C50F8
:10260C008DF80D4001F06AF90A4B9842CDD06FE776
:10261C00CDE9043339460DF10303304603AA039385
:10262C0001F070F8F0E7203352F82330FFDE00BFE2
:10263C00907000000000AD0B4209012A034670B5F2
:10264C0001D0BAB170BD0D4E326951680029F9D074
:10265C00012503F01F030C689D400029F2D08A6805
:10266C002A4002D030464B6898472CB1236821464B
:10267C001C46F2E7024EE7E72346F8E7C466000083
:10268C00A466000038B545682B69E3B110352846BF
:10269C0001F024FA0446B0B90146284601F0DEF9EF
:1026AC000B4B984211D1224628460A4901F0AAF94F
:1026BC0022460121DB20FFF71DFC2246012140F2BE
:1026CC000D10FFF717FC002038BD6FF00400FBE77E
:1026DC000000AD0B45260000F0B51646426801F02F
:1026EC001F04107B87B044EA40141069002871D095
:1026FC00B6F5001F02F1100506D12146284603F05D
:10270C00B4FD002007B0F0BD0027B6F5800F01A87E
:10271C00019747603BD1B3F1007F14BF052304231D
:10272C008DF804300023CDE90403039393680DF175
:10273C00030723FA01F111F001013DD1B6F1A07F9D
:10274C003AD104F01F035F2C4FEA541003F120031D
:10275C0046D8254A52F8202052F82330DB072BD4D8
:10276C003A462146284601F05BF9204B984219D095
:10277C0002972146284603AA00F0C4FF1C4B98423E
:10278C002BD101222146284601F0C6F9B9E7B3F155
:10279C00C06F05D0B3F1007F14BF01230223BFE744
:1027AC000323BDE73946284601F0AEF9104B984299
:1027BC00DED06FF00B00A5E73A462146284601F023
:1027CC002FF90B4B9842D4D128469DF8031001F0F9
:1027DC0093F9CEE76FF0850094E76FF0150091E761
:1027EC0051F82330FFDE00BF907000000400AD0BE9
:1027FC000000AD0B036803F01F025F2B02604FEA71
:10280C0053129ABF024B53F822000020704700BFAE
:10281C00CC7000002DE9F04F9246814640F2FF1635
:10282C00444FDFF8148185B000EB8101494501D19B
:10283C0000205CE0D9F80030C3F3C322082AC3F3AC
:10284C00080474D8B442BD5C4FEA136307D0062B5E
:10285C0014D14FF0000BCAF808465A461EE0062B5E
:10286C004FF0FF3404D1CAF8084609F10409DDE73A
:10287C0040D8042B37D1CAF80046F6E73AD8042BD7
:10288C0031D14FF0000BCAF8004603A80394FFF7B0
:10289C00B1FF0122039B02FA03F38360D9F80030E5
:1028AC00039403F40040002818BF002203A818BFAB
:1028BC004FF0010B01930092FFF79CFF039C019BCF
:1028CC0000EB8400D0F88040C3F3412C009A2B021B
:1028DC0043EA8C03134304EA0804234343EA4B03FF
:1028EC00C0F88030C1E7052B1AD06FF0850005B019
:1028FC00BDE8F08F382BF8D103A80394FFF77AFFCB
:10290C00039B00EB8300D0F8803023F0E04343F0CE
:10291C008043C0F88030631CA7D04FF0010B9CE7BC
:10292C00621CCAF80446A0D04FF0010BADE76FF063
:10293C001500DCE70F7A0000F0F0FCFF2DE9F04702
:10294C004568D0F8108006460021E86B00AF03F014
:10295C00E6FA041E11DB296C481C1AD005F1440060
:10296C0000F012FB10F1130F04460AD10121334A77
:10297C00334803F0BAFA6FF012042046BD46BDE8A6
:10298C00F087411D05D101212E4A2D4803F0ADFAE7
:10299C00F3E74FF001096B6B9847D8F80850D8E96A
:1029AC00023203EBC2039D4209D3404603F00CFBF9
:1029BC0073680021D86B03F0B2FA0024DDE72868B5
:1029CC0003F0E0FC0346B0B92A686C468AB0106884
:1029DC0029796A46D1614FF400711B4D11841B4952
:1029EC00C2E9055042F8101F4FF411511448FEF77C
:1029FC0001FEA546BFE728682979EB88D0F810C0FE
:102A0C00DA07DCF8004054BF43F4B01383F4D0135E
:102A1C0023F4801209FA01FEDB07D0F808A04CBFA2
:102A2C004EEA040424EA0E04CCF80040DAF8003034
:102A3C009847041EA1DB0835B1E700BF187A0000E7
:102A4C00E86F0000437A0000607A00000400000187
:102A5C002DE9FF4105690646AA6CD0F804802B6D60
:102A6C00002A35D1002B53D0B8F83840686C9C4202
:102A7C0028BF1C46EF6CEB6C53B12A6D42B107F0CA
:102A8C006042B2F1005F03D0082C28BF08246F6E9F
:102A9C006A6CAC651AB1AA6C002A18BF2246019266
:102AAC001BB12B6D002B18BF2346009000226946EA
:102ABC0040460393029701F04BFC184B984229D0E7
:102ACC006FF00401304604B0BDE8F04103F09EBA4B
:102ADC00696CEF6C0846B8F83840ABB1934228BF2C
:102AEC0013469C4228BF1C460029C4D001F0604309
:102AFC00B3F1005FBFD0082C28BF0824286E2246F3
:102B0C0003F08EFD286EB6E7944228BF1446EBE71F
:102B1C001946D7E704B0BDE8F08100BF0000AD0B4B
:102B2C0010B502780346002A5FD10C69A26D32B948
:102B3C00606D6FF07301BDE8104003F067BAE06C94
:102B4C0040B1216D31B1DB6823B1834202D0616E9B
:102B5C0003F066FDA36CA26D33B19A4213D9012127
:102B6C00224A234803F0C1F9236DA26D33B19A4276
:102B7C0022D901211D4A1E4803F0B7F9606DBDE84A
:102B8C001040FFF765BF9B1AA3647BB9636B04F11C
:102B9C00480208336363A36B04F13801013BA36360
:102BAC0004F1340003F0A8F96064DDE7636C002BDA
:102BBC00DAD013446364D7E79B1A23657BB9E36BC4
:102BCC0004F150020833E363236C04F14001013B30
:102BDC00236404F13C0003F08FF9E064CEE7E36C6E
:102BEC00002BCBD01344E364C8E710BD847A0000FB
:102BFC00E86F00002DE9F04F8FB000AFFB60436829
:102C0C000646BB608B88046998048846914633D489
:102C1C004FF0FF324FF0FF3304F1100001F082FE51
:102C2C00C4F80480D6F804B0D6F810A0DBF808304D
:102C3C003B609AF85D3023B1DAF80030984500F02B
:102C4C00BC80B8F804E01EF400631CD00121B14A2A
:102C5C00B14803F04AF96FF0850523689B8813F49B
:102C6C00005304D1636004F1100001F027FE2846E4
:102C7C003C37BD46BDE8F08FA369002BC8D1636813
:102C8C009942C5D1CEE71EF0010F15D06D4688B024
:102C9C0031686A46A148C2E905014FF4007191837D
:102CAC009F4942F8101F4FF4E2519B48FEF7A2FCDB
:102CBC00AD466FF01505D0E71EF0080F05D0994A08
:102CCC000121954803F011F9F3E7CEF34513082BD6
:102CDC0001D0954AF4E7D8F800307B607A68934BC2
:102CEC009A4201D8924AEBE707F110050BF10C0C54
:102CFC00BCE80F000FC5BCE80F000FC5D7E90032C8
:102D0C00934294BF7B627A621EF0020F9CE8030030
:102D1C000EF0040385E803003DD0002B14BF032301
:102D2C00022387F82830CEF3001387F82930DBF81C
:102D3C000030D3F80036591C11D01EF0020F03F0EE
:102D4C001F027C484FEA5313CEF3400127D1022BCC
:102D5C0000F2DB8050F82310012393408B609AF82B
:102D6C005D302BB1584601F0ADFA00238AF85D3086
:102D7C003346714A584607F1100101F069FA6F4A5F
:102D8C000346904214D001216D4A634802F0EEFFD5
:102D9C006FF0040561E7003B18BF0123C1E7022B6C
:102DAC0000F2B58050F82310012393404B60D6E716
:102DBC000123CAF800808AF85D30012384F85C3066
:102DCC00BB68196C4A1C0AD003F1440003F02FF9BC
:102DDC00743004D102215B4A4F4803F086F8B9F1F4
:102DEC00000F68D1C4F834900023A36304F14802A7
:102DFC0004F1380104F1340003F07EF8FB686064E0
:102E0C00002B60D1E3630023236404F1500204F12E
:102E1C00400104F13C0003F06FF8002501212A4623
:102E2C00E0642563204603F0AFF83046FFF710FE50
:102E3C002A462B46A06B83424DD100231946256CA4
:102E4C00A9424FD19A4238BF1A46A0464FF4FA53C2
:102E5C0003FB02F558F8203B47F6122C1B6840F296
:102E6C00E730B5FBF3F50021C8354FF47A72002337
:102E7C00E5FB0C01FDF7FCFA02460B46404601F05F
:102E8C0051FD0246002834D001212F4A224803F07C
:102E9C002CF80025B868A56501F014FA6FF07301E1
:102EAC00304684F85D5003F0B1F8404601F060FD07
:102EBC006FF07305D1E6D9F800306363002B93D023
:102ECC00D9F8043091E7FB681B68E363002B9AD0B8
:102EDC00FB685B6898E7616B01EBC30149680133E0
:102EEC000A44A8E7E06B00EBC100406801310344E1
:102EFC00A6E7256B15F1740FCBD0002D3FF4ADAECA
:102F0C000146306903F040F8A7E68960FFDE002334
:102F1C005B60FBE7A27A0000E86F0000BC7A00005F
:102F2C0003000001DE7A0000FD7A000047E8010092
:102F3C002C7B0000D87000002D2B00000000AD0B86
:102F4C005D7B0000847B0000AE7B00005F2810B529
:102F5C0000F01F034FEA50140DD8094A52F82420F0
:102F6C0002EB8302D2F88000064B034043EA810354
:102F7C00C2F8803010BD0022203352F82330FFDE1F
:102F8C005C710000F0F0FCFF0123F0B587B08DF808
:102F9C000230022300248DF804306B4403930F4657
:102FAC0001AB0DF10301049305460291059400F069
:102FBC00ABFD0C4B064698420FD13946284603AA66
:102FCC0000F0A0FBB0420BD028469DF8031000F097
:102FDC0093FD6FF0040007B0F0BD6FF01200FAE73C
:102FEC002046F8E70000AD0B70B514461D4603F003
:102FFC004AF8A042A94115D30B4AD2E90061A41B9F
:10300C0024F47F7323F0030365EB01009B1941EB60
:10301C000001C2E90031A40A44EA8050BDE87040C6
:10302C0002F09EB970BD00BF0006002010B5002252
:10303C000121E420FEF75EFF164A0020D2F8183773
:10304C0023F44033C2F8183700F03CFE124B044610
:10305C00984208D10120114900F094FEA04205D0FD
:10306C000F4B984213D04FF0FF3010BD03F00BF80C
:10307C0001220C4B20F47F7020F00300C3E9000107
:10308C00094BC3E90001094B00201A60EDE76FF012
:10309C000B00EAE700200E500000AD0BC80000202A
:1030AC000200AD0B00060020F8050020FC070020F4
:1030BC0008B502F0E8FF054AD2E90032C01A61EB0C
:1030CC000201800A40EA815008BD00BF00060020C2
:1030DC0073B5431C0CBF6FF0004520EAE07502F09D
:1030EC00D2FF104BD3E90026841A4FF4806061EBB9
:1030FC000603C5FB0043B4F5006F73F1000138BF44
:10310C0000234FF0010124BF24F47F7020F0030052
:10311C001218009146EB0303034800F097FE02B02F
:10312C0070BD00BF00060020C0000020064BD3F885
:10313C0040231C2A05D1D3F84403431E584258415E
:10314C0070470020704700BF00C0FF0003689A075B
:10315C000CD50368DB070DD50922074BC3F80C25EA
:10316C000F22C3F8042501221A60FEE7034B03600B
:10317C00EF3B0360704700BF00801050F000FA5026
:10318C0008B501233E4A3F48C2F800383E4AD2F8FF
:10319C0040231C2A04BF3D4AC2F80C34FFF7D6FF6B
:1031AC000830FFF7D3FF0830FFF7D0FF0830FFF7E8
:1031BC00CDFF00F5F470FFF7C9FF354AD2F88C301B
:1031CC0043F44063C2F88C300022D30003F57F0334
:1031DC0003F54043D3F8001401310AD0D3F800149E
:1031EC0039B1D3F800140132D3F80434402A0B60FF
:1031FC00EBD1234BD3F84024002A3DD0FFF796FFA8
:10320C0048B1214BD3F83423224B9A429EBF1C4B1E
:10321C00214AC3F84026FFF789FF18B11F4B204AFB
:10322C00C3F8AC27FFF782FF48B13422144BC3F824
:10323C002426D3F83C2622F40022C3F83C26124B59
:10324C00D3F840331C2B08D1164BD3F80026D207E9
:10325C0044BF6FF00102C3F800260323124A0C4945
:10326C00C2F81835D1F88C3043F44063C1F88C3077
:10327C000023C2F8A03508BDC822C3F84024BDE71E
:10328C000000125000C50D5000C0FF00003005506A
:10329C0000ED00E0001D0A1840E0A91E00A0085037
:1032AC0078000A0400E0105000B0045030B50468F7
:1032BC00ACB1B4FA84F30122C3F11F03DBB29A4020
:1032CC0024EA0202D0E8EF5FA54204D1C0E8EC2F5B
:1032DC00BCF1000FF6D1EAD102480B7030BD0248A8
:1032EC00FCE700BF0000AD0B0200AD0B10B503688E
:1032FC00CB40DB0710D401238B40026843EA020168
:10330C00D0E8EF4F944204D1C0E8EC1FBCF1000FA1
:10331C00F6D1F2D1014810BD0148FCE70000AD0B1D
:10332C000400AD0B036803F01F025F2B02604FEA31
:10333C0053129ABF024B53F822000020704700BF73
:10334C0068710000034A4309D35C00F01F00184465
:10335C00C0B27047EC7B000070B505460846FFF71D
:10336C00F1FF3C212A79184B01FB0202083233F899
:10337C001200C10526D578240026C0F3432120F481
:10338C00F85023F812002A7904FB02340E3434F876
:10339C00020F10F4807F03D0C0F34320814211D080
:1033AC000136232EF3D10020C2EB02120A4443F85B
:1033BC00320078202A79BDE8704000FB0230603082
:1033CC00FFF794BF70BD00BF00080020F0B50646A3
:1033DC00002487B0114F019117F8012B06AB03EBBA
:1033EC00D20313F8143C02F00702D34013F001038C
:1033FC0006D10134032CEFD10023184607B0F0BDE1
:10340C00074A03AD07CA85E8070055F824100A6A75
:10341C0046F824200A62002AEBD0EEE7FC7B000081
:10342C00F06F000010B504460846FFF78BFF3C23F5
:10343C0003FB0400024B083033F81000400B10BDA6
:10344C000008002010B504460846FFF77BFF3C231C
:10345C0003FB0400034B083033F81000C0F34000AA
:10346C0010BD00BF0008002010B504460846FFF749
:10347C0069FF3C2303FB0400034B083033F81000B6
:10348C00C0F3401010BD00BF0008002078232DE9C8
:10349C00F04F6F4C0E460C1BB4FBF3F4D0F8141326
:1034AC00DFF8B0B1C9B28BB041F400315BF8342015
:1034BC00009002F08CFE8103054638D50023E7000E
:1034CC000BEBC404CDE907330993636807A81946CD
:1034DC000193FFF77BFF3B1D03934FF0000A5E4BFC
:1034EC000DF11C090293029A12F8013B0292039A05
:1034FC0002EBD3021BF8022003F0070322FA03F3BA
:10350C00DA071AD40AF1010ABAF1030F09F1040916
:10351C00E9D14FF400310022009802F058FE0199D5
:10352C0007A8FFF753FF0028D7D125F40035012455
:10353C00002D76D10BB0BDE8F08F484B534404936B
:10354C00D9F800100029DDD091FAA1F1B1FA81F17E
:10355C00049B1C7841EA44142046FFF7F3FE083024
:10356C0036F81080C8084FEA98030593012319F820
:10357C00002001F0070103FA01F122EA010209F827
:10358C00002006A80694FFF7CDFE069A059B203274
:10359C0050F82220C8F382075B07B846C2F30142F9
:1035AC0023D53046D7B22146424602F0DFFD06A8AD
:1035BC000694FFF7B7FE069B203350F82330C3F375
:1035CC0001439F4207D10021204602F0C0FD39463D
:1035DC00204602F0BCFD06A80694FFF7A3FE0122CC
:1035EC00069B02FA03F30362AAE7022A0DD1032118
:1035FC00204602F0ACFD07F00503012BEBD142464F
:10360C002146304602F0B2FDE5E702212046059244
:10361C0002F09DFD032FF2D0059A032ADBD1022F75
:10362C00ECE795FAA5F3B3FA83F3009904FA03F2E5
:10363C0025EA020503F5A27251F8222006EB43039A
:10364C003046B3F86410C2F3014202F08FFD6FE70D
:10365C000008002074710000FC7B0000FC7B000063
:10366C002DE9F74305460846FFF76CFE3C222B7903
:10367C00204F02FB0303083337F813300E46DB07E9
:10368C00044635D5284602F0C9FD95F8049031461C
:10369C004846FFF7E9FE60B14846FFF7C3FE00223B
:1036AC00D5F8008000B208EB8003C3F81025C3F8EE
:1036BC00102528463146FFF74FFE3C222B7901A8F6
:1036CC0002FB03440023083427F814300196FFF75B
:1036DC0029FE019B00EB8300D0F88020064B1340A1
:1036EC0043F00203C0F88030044803B0BDE8F08317
:1036FC000348FAE700080020F0F0FCFF0000AD0BD7
:10370C000400AD0B2DE9F04F9046044685B00846F9
:10371C00FFF718FED8F800900F4606462579B9F148
:10372C00000F23D02846FFF78DFE18B12846FFF76F
:10373C009BFE58BB00230DF10F02CDE900338DF831
:10374C000E308DF80F300DF10E014B46384602F05D
:10375C00B5FC3C2303FB05635D49083331F81320AA
:10376C0022F0020242F0010221F81320D8F80430B2
:10377C00002B3FD03946207993F80090D3F804A061
:10378C00FFF760FE20B1BAF1000F26D0514835E0AA
:10379C003C226A43DFF838E102EB060C0CF1080C12
:1037AC003EF81C3023F02003DB04DB0C2EF81C301D
:1037BC00BAF1000F11D0B9F1030FE7D8D8F8041003
:1037CC002068496891F800A000EB8A00B9F1000F5D
:1037DC0017D1C0F81095C0F810953C2303FB056574
:1037EC003B4A083532F8153023F01C0343EA8903B1
:1037FC0022F81530D8F8083063BB374805B0BDE85F
:10380C00F08FD0F810B552442BF0030BC0F810B564
:10381C00206843EA4A3300EB8A01D1F810050EEB1D
:10382C00420220F4473020F47C70C1F8100541F6B8
:10383C00F070D1F810B500EA071040EA094040EAF0
:10384C000B0043F02003C1F81005A2F864702EF8A9
:10385C001C30C2E73946D3E900852046FFF77CFDD2
:10386C00B8F1000FC9D078232079194F4343FA18C7
:10387C00FB58984504D153689D4201D100220CE0BD
:10388C00782303FB00700DF10F016030FFF70EFD84
:10389C00114B9842B2D19DF80F203C212379C3EBF8
:1038AC000313134447F833802379C3EB03131344F6
:1038BC0007EBC3035D60237901FB0363083337F81F
:1038CC00131041EA422242F4807227F8132094E745
:1038DC00000800200400AD0B0000AD0B2DE9FF47E4
:1038EC000546084617461E46FFF72CFD894604463A
:1038FC0087B395F804804046FFF7A4FD18B94046FD
:10390C00FFF7B2FD68BB3C2303FB0848DFF8E4A0DB
:10391C0008F108083AF8183013F01C0F02D07B7825
:10392C00012B1ED001238DF80F3000237A1CCDE91A
:10393C0000734846BB1C0DF10F0102F0BFFB3C228B
:10394C002B7902FB034308333AF8132042F00302AD
:10395C002AF81320002E4BD049462879FFF772FD28
:10396C0018B9254804B0BDE8F08700214FF03C0C95
:10397C0030782B68820003EB8003C3F81015C3F872
:10398C0010152B791B490CFB0343083331F81370CA
:10399C0027F4604727F0200721F8137077783FB39E
:1039AC002B68B6781A44D2F810E5144B3F040EEA93
:1039BC000303C2F8103541F6F07307F4403703EAFD
:1039CC0009133605D2F810E53B4306F48016334351
:1039DC0043EA0E03C2F810352B790CFB0344083470
:1039EC0031F8143043EA403343F0200321F814300B
:1039FC000348B7E7000800200400AD0B0FE0ECFF14
:103A0C000000AD0B30B578250479044B05FB04346C
:103A1C00A160017905FB0133DA6030BD000800209C
:103A2C0070B5067914463046FFF71EFD68B108469E
:103A3C00FFF788FC3C2303FB0600054B083033F8EA
:103A4C00103004485B0B237070BD0348FCE700BFCB
:103A5C00000800200000AD0B0400AD0BF8B50646C5
:103A6C0007797820194D00FB075393F8744054BB29
:103A7C00184646222146103002F0DFFD3179144AF7
:103A8C00336852F8316021468E4212D10022C3F3C2
:103A9C000830C3F844210130D3F84421FEF708FA6A
:103AAC00782303FB075501230A4885F874302B66ED
:103ABC00F8BDCAB2920002F58070442A04BF1C50B3
:103ACC001A580131E0E70448F2E700BF0008002073
:103ADC00747100000000AD0B0C00AD0B7821027965
:103AEC00044B01FB023393F87400003818BF01201B
:103AFC00704700BF000800200079024B03EB8000E8
:103B0C00FFF7F4BBD00000200079024B03EB8000E0
:103B1C00FFF7CCBBD00000202DE9F74390F80490C0
:103B2C00044648461746FFF79FFC0D46266800B32F
:103B3C004846FFF787FC8046D8B94846FFF772FC29
:103B4C0005B2AD0005F5807246F802802168B258C6
:103B5C002944D1F8102542F00102C1F810252FB1EB
:103B6C000122216802FA00F3C1F8143303B0BDE856
:103B7C00F083D6F8143328469B035CBF4FF4003314
:103B8C00C6F81433FFF7DEFB3C22237902FB03005B
:103B9C000E4B083033F81030C3F38203042B11D0D2
:103BAC00052B11D001A80195FFF7BCFB019BC16847
:103BBC00D94001F001010231284603B0BDE8F043C1
:103BCC0002F0C5BA0321F7E70221F5E7000800204F
:103BDC0001490248FFF75ABC0008002000A00D5014
:103BEC0001490248FFF752BC7808002000C0105071
:103BFC0010B50024037A0D49CA181B0103F1A04328
:103C0C0003F5622392F82420C3F82C450C2303FB04
:103C1C0002130468DC6042681A610122007A18758C
:103C2C008B68824013438B6010BD00BF00000020E6
:103C3C00074B027AD3F8101521F001010A43C3F89F
:103C4C0010250268C3F8A4264268C3F8AC26704756
:103C5C0000200E5040B9054B05485B6813F0010F6E
:103C6C00044B08BF184670470348704700000020FB
:103C7C000400AD0B0000AD0B0800AD0B2DE9F048B6
:103C8C00EFF31181202383F31288BFF36F8F4FF072
:103C9C00FF356FF04044094ED6E900BC5D4574EB2E
:103CAC000C07F9D3CCF31303C0E900B381F31188EB
:103CBC00BFF36F8F0248BDE8F08800BF40270E505D
:103CCC000000AD0B7FB5264D2C78002C45D1254A34
:103CDC0001AB07CA83E80700234E1846D6F8102517
:103CEC0022F00202C6F81025FFF7A2FF23462C751E
:103CFC0085F824409A0803D10423C6F80021F9E77B
:103D0C000433302BF6D1E420FEF7D2F8164B1749CA
:103D1C00D3F8102503F5C07322F00202C3F89023E8
:103D2C0040F6FF72C3F8A82100221A60A3F5807038
:103D3C0004338B420260F8D101240B4B0C4A1C66F5
:103D4C000C4B5D201B68B3FBF2F358430A4B234327
:103D5C0098470A482C7004B070BD0948FBE700BFB7
:103D6C0000000020FC6F000000200E50B0210E500F
:103D7C0040420F00CC000020207000000000AD0B72
:103D8C000C00AD0B73B52A4C054663680E4603F068
:103D9C00010304F1140101A80193FFF787FA254BE5
:103DAC0098423DD100233370636823F001036360B4
:103DBC00A36843F00103A3601F4BD3F810259607AB
:103DCC0032D4D3F8102542F00202C3F81025C5B145
:103DDC00D3F8482712F0010202BFD3F8481741F07C
:103DEC000101C3F84817144BD3F84017D3F8441704
:103DFC004C00F9D42AB9D3F8482722F00102C3F8B1
:103E0C0048270E4B0E4A1B68B3FBF2F30A4A03EB2E
:103E1C0043135BB1D2F84017D2F84417490001D4D0
:103E2C0002B070BD013BF4E70648F9E70648F7E736
:103E3C00000000200000AD0B00200E50CC00002034
:103E4C0040420F000C00AD0B0700AD0B2DE9F0410B
:103E5C000446007A1D46FFF7FDFE1E4B9046984225
:103E6C0006469DF8187031D12046FFF7C1FEEFF3DE
:103E7C001180202383F31288BFF36F8F227A164BA5
:103E8C009200134400221A60217AC5F3130509012C
:103E9C0001F1A04101F56221C1F82085C1F824553A
:103EAC0080F31188BFF36F8F87B10123227A0B49FE
:103EBC0003FA02F2D1E8EF5F1543C1E8E05F002896
:103ECC00F8D1227A9340064AC2F824333046BDE832
:103EDC00F08100BF0000AD0B00210E503800002017
:103EEC0000200E50F7B5284B284CD3F82C6304F166
:103EFC0038070EB903B0F0BD96FAA6F00123B0FA5C
:103F0C0080F08340DA43224926EA0306231893F80B
:103F1C002450830019440C2303FB0543DB686BB36B
:103F2C00D7E8EF3F03EA020CC7E8EECFBEF1000F73
:103F3C00F6D1C340DB0719D5020102F1A04202F50C
:103F4C006222D2F82435D2F82025D1F800C0BCF179
:103F5C00000FCED04FF0000CC1F800C00C2101FBBB
:103F6C00054529690091E9688847C2E7AB1D04EB58
:103F7C00C30C54F83320DCF80430E6E70A68002A56
:103F8C00B7D00B60B5E700BF00200E50000000203A
:103F9C0000210E50036803F01F025F2B02604FEAF2
:103FAC0053129ABF024B53F822000020704700BFF7
:103FBC008471000037B51446421C054618D00129FF
:103FCC0002D1BBB102F0A8F901A80195FFF7E2FFFD
:103FDC00019B0A4A00EB8300D0F88050A30043EA0F
:103FEC0041030B432A40134343F4A063C0F88030D1
:103FFC0003B030BD02F09CF9E6E700BFF0F0FCFF27
:10400C0003460E4A10B50E480E4CA34218BF10467C
:10401C00B0FBF1F201FB120082420DD912F001004B
:10402C000AD17E2A07D8A34214BF022304239A4242
:10403C0034BF0020012010BD0020FCE70024F40058
:10404C000020A10700A004502DE9F74F91F8213072
:10405C0005460C4690F804A0002B00F0B0804FF001
:10406C00010891F822902A686848694F6949636988
:10407C00824208BF0F46B7FBF3F7674B674ED3F886
:10408C0040331C2B14D1022F40F29D80237E13F061
:10409C00FD0F40F098807B080133DBB2994538BFA7
:1040AC009946242303FB0A639A7F42F008029A770D
:1040BC00242202FB0A6394F82300997F60F3000129
:1040CC0099772B79217C02FB03639A7F61F3410280
:1040DC009A7794F823B0BBF1000F21D1237E0121F4
:1040EC00012B94BF002301235A462068FFF762FF7F
:1040FC005B465A466068FFF75DFF5B465946A27EF9
:10410C00A068FFF757FF0121237C5A46E06883F033
:10411C000103FFF74FFF0B465A46E069FFF74AFFD2
:10412C002423B8F1000F55D04FF0FF3203FB0A6384
:10413C001A62A07C217E627ED4F80CC094F81080A8
:10414C0094F824E094F820A02B68BEF1000F16D14F
:10415C00D4E900BECDF804E0D4F808E0E469C3F873
:10416C0000B6DDF804B0C3F804B6C3F808E6C3F82B
:10417C000C46C3F810C6C3F8B885C3F8B095003A1E
:10418C0018BF01220229C3F8C005C3F82C7533D01F
:10419C00032934D0012901D142F00202C3F854257D
:1041AC002422C3F8ACA52B795343F35853B3286896
:1041BC00C0F3083003B0BDE8F04FFDF779BE984668
:1041CC004FF002094FE7242303FB0A639A7F6FF336
:1041DC00C3026CE703FB0A6AE2689AF81E30CAF85D
:1041EC002020227C4FF0FF3C62F341038AF81E3002
:1041FC00A07C217E627EA3E742F00402CEE742F06F
:10420C000602CBE703B0BDE8F08F00BF00A004505E
:10421C000024F4000020A10700C0FF00F0080020DB
:10422C00431C07B50ED0019001A8FFF7B3FE019B0C
:10423C0000EB8300D0F88020044B134043F00203C2
:10424C00C0F8803003B05DF804FB00BFF0F0FCFF59
:10425C002DE9F84F242590F804A0164C05FB0AF51F
:10426C0004EB050B98469BF81C3006460F4691460E
:10427C00DBB9B1B149690068FFF7C2FEB8B1394684
:10428C00304644F80590CBF80480FFF7DDFE24237C
:10429C0003FB0A4400236377012307482377BDE817
:1042AC00F88F6251CBF80480F1E70448F7E7044833
:1042BC00F5E700BFF00800200000AD0B0C00AD0BC3
:1042CC000400AD0B2DE9F0410446067900681E4D43
:1042DC00C0F30830FDF7FAFD24237343EB5853B1B8
:1042EC0023681A4A06EBC601C3F80823206805EBBD
:1042FC00810102F029F8242101FB06512368D3F82F
:10430C000006D3F80476D3F808868B7FDB0714D429
:10431C00FFF786FF4046FFF783FF3846FFF780FF25
:10432C00086AFFF77DFF2368D3F80C06D3F8101644
:10433C00FFF776FF0846FFF773FF242303FB0655B0
:10434C0000232B77BDE8F081F00800200700F81F50
:10435C0024232DE9F04307795E4E7B439046F218F7
:10436C000D46517F814685B0002940F0B080F3584E
:10437C0023B118F0140F04BF01235377242495E8BC
:10438C000F0004FB076404F10C0C8CE80F00206A8E
:10439C00431C04D0A37F9C071AD501F0BDFF2B68EA
:1043AC00D9F8004023B103F06043B3F1005F06D1AC
:1043BC00AB6883B103F06043B3F1005F0BD02423EF
:1043CC00002203FB076344485A7705B0BDE8F0832D
:1043DC0001F0AEFFE3E718F0010318BF0123C4F8A6
:1043EC004C3718F0020318BF0123EC46C4F81437FD
:1043FC0095E80F00C4F83C078CE80F00C4F8401790
:10440C00C4F804270022039BC4F80837C4F8082119
:10441C00D4F808310723C4F80035304BD3F84033B7
:10442C001C2B11D124237B43F118897F08070BD552
:10443C008221F358C4F8841C33B1C4F80021D4F899
:10444C0000310123C4F8043318F0080505D12423E6
:10445C007B43F258012323601AB324237B43F218C5
:10446C00F3585BBB1D49D1F840131C2904D1927F32
:10447C00110748BFC4F8843C242303FB0763186A64
:10448C00421C04D09B7F9B0715D501F051FF35B919
:10449C0007EBC707204606EB870101F055FF1048D4
:1044AC0093E7D4F80831002BFBD062460421204658
:1044BC0001F0F4FED1E701F02FFFE8E7042318F038
:1044CC00040F14BFC4F80833C4F80433E7E70548F5
:1044DC007BE700BFF00800200A00AD0B00C0FF0016
:1044EC000000AD0B0B00AD0B10B51E4BD3F84033D9
:1044FC001C2B15D11C4B9B7F180711D51B4BD3F8CC
:10450C000423D1070CD5D3F800214AB10022C3F8FB
:10451C000021D3F80011C3F8842C0122C3F808231E
:10452C000421134A114801F0B9FEC8B10E4C206A9F
:10453C00421C04D0A37F9B070FD501F0F9FE637FCB
:10454C001BB10949094801F0FFFE002323720948F9
:10455C00D4E90031BDE81040184701F0DDFEEEE76C
:10456C0010BD00BF00C0FF00F008002000A00450E8
:10457C00FC080020F808002010B50446FCF778FF72
:10458C0003480121034A01F0E8FB204601F005FF36
:10459C00D86F0000FF7B00002DE9F84304460D4660
:1045AC0000AFEFF31188202383F31288BFF36F8FD2
:1045BC000428294A98BF294BE9468AB09668117C91
:1045CC0098BF53F820306A4688BF254BC2E90731A3
:1045DC0040F2013323489384234BC2E9050442F88B
:1045EC00103F00234FF431512048FDF703F8CD461E
:1045FC0045B1EB69C3F3080323B101211C4A1B48E5
:10460C0001F0ABFB2EB1304601F00AFF08B1037884
:10461C0003B91848E9468AB06A46174BD061C2E91B
:10462C00053640F201331384144B42F8103F00233B
:10463C004FF411510D48FCF7DDFF2946CD462046BD
:10464C00FFF79AFF88F31188BFF36F8F3046FDF7A1
:10465C00DDFBBD46BDE8F883140900209071000015
:10466C000E7C0000247C000005000001D86F0000C7
:10467C004C7C00001C7C00006D7C000004000001E0
:10468C0038B50A4B53F82040013053F82050A5425E
:10469C0000D838BD606830B1037FDB0701D401F06E
:1046AC0084FE0834F3E723689847FAE7A471000006
:1046BC00012270B5294B032086B01A70FFF7E0FF7A
:1046CC00FDF772F80420FFF7DBFF254C254D26463D
:1046DC00AE4204F1300410D300F01CFB204C224EEF
:1046EC00AC4226D300F02AFBFCF7C0F81F4A137B20
:1046FC0023F00103137306B070BD54F80C3C059302
:10470C0054F8103C049354F8143C039354F8183C9C
:10471C00029354F81C3C019354F8203C009354E948
:10472C000A2354E90C0100F05DF954F8303C5E6545
:10473C00CDE7D4E90A23B3F1FF3F08BFB2F1FF3F45
:10474C0005D052EA0301206803D100F0E1FB3034BC
:10475C00C6E73146183000F071FDF8E75309002028
:10476C007C6F00007C6F00001F6500008806002035
:10477C0008B50348034A0021121A01F02DFE08BDAA
:10478C0038010020580900200023012270B586B0A2
:10479C00CDE904230F220193CDE9023214234FF407
:1047AC00A0720E4D0E4E03FB00550E4906EBC016C3
:1047BC00044602FB00110C4B3046009500F012F938
:1047CC00737B2C7423F004037373084B013403EBD9
:1047DC00C423EE606B6006B070BD00BF14090020EE
:1047EC000806002058140020ED630000580C00202F
:1047FC00BFB50020FFF744FF284B83F30888002443
:10480C00E023274D274F85F82230EC772C766C76F9
:10481C00AC7685F820406B6A43F4E0236B6285F834
:10482C002340FDF775FAFDF7D5FB4FF0FF33AB6274
:10483C00EB62FDF777FDFDF7F5FBFCF779FD1A4808
:10484C0000F03AF901F09DFD0120FFF719FF02205D
:10485C00164DFFF715FF00F0A5FA154B15495D61D4
:10486C00154B4FF48062059301232846CDE9034391
:10487C00CDE901443B46009400F0B4F806466A7B4F
:10488C00284622F004026A7301F006FE2046FFF768
:10489C007BFF3A4631462846FDF780FB5814002032
:1048AC0000ED00E0BD46000008070020880600204F
:1048BC001409002098150020CF7C000070B5EFF390
:1048CC001186202383F31288BFF36F8F0468A042F4
:1048DC001AD0CCB1D4E90032002513605A60637B46
:1048EC00C4E9005523F002036373A56004F11800BA
:1048FC0001F040FE2046A56701F0CEFD3146BDE833
:10490C007040074800F0E0B9D0E902329A4218BF73
:10491C000133836086F31188BFF36F8F70BD00BFC6
:10492C005409002013B5EFF31181202484F312886D
:10493C00BFF36F8F846844B1013C846081F31188AC
:10494C00BFF36F8F002002B010BD52EA030406D1F2
:10495C0081F31188BFF36F8F6FF00F00F3E7CDE990
:10496C0000230246014800F08DF9ECE754090020C1
:10497C002DE9F0410546EFF31187202383F31288CC
:10498C00BFF36F8F00236FF00A081E462C68A542F8
:10499C0016D0ACB1D4E9003213605A60637BC4E921
:1049AC00006623F002036373A66004F1180001F0A3
:1049BC00E1FD2046C4F8788001F06EFD0123E5E7A7
:1049CC000022AA602BB13946BDE8F041044800F042
:1049DC007BB987F31188BFF36F8FBDE8F08100BFFF
:1049EC00540900202DE9F043984685B000F1580396
:1049FC00C0E91633109B002603730423073222F000
:104A0C00070543730F9B01EB05090F46837349465A
:104A1C00C0E906668660C6730446FCF733FF0E9B3E
:104A2C00073020F00700A066C4E9187502930D9BAF
:104A3C00A9EB000901930C9B4A4600933946434667
:104A4C002046FDF78FFA054B66659B6803B1DB6E5C
:104A5C004846E36605B0BDE8F08300BF14090020AA
:104A6C00F0B5002587B00595109DDDE9127604950B
:104A7C000F9D044603950E9D02950D9D01950C9D71
:104A8C000095FFF7AFFFB6F1FF3F08BFB7F1FF3F4F
:104A9C0005D056EA070305D1204600F039FA204626
:104AAC0007B0F0BD3A46334604F11800014900F056
:104ABC00C5FBF4E71F65000040F20113838100235E
:104ACC00C0E91833C366014B986070471409002085
:104ADC006FF00A01084A93689967084958674B6850
:104AEC0043F080534B60002383F31188BFF36F8F27
:104AFC009368986F704700BF1409002000ED00E028
:104B0C0070B590F90D20437B002A36DBD90634D1E1
:104B1C001B4C63F07F032246437352F8183FE16944
:104B2C00934207D1C0E900210860E06111E099428D
:104B3C00F8D01B68002BF5D090F90E5093F90E604D
:104B4C00B542F4D0AE42F2DD5968C0E900310860DC
:104B5C005860A569954200D005B9E568A3685A7BF1
:104B6C00D20604D1DA897F2A01D9AA6932B1AB42C3
:104B7C0002D0284600F0C0FA656170BD6361FCE7A5
:104B8C001409002038B590F90D200146002A437B0A
:104B9C0004DA03F07F03437301F044FC0D4D2A4605
:104BAC0052F8184FAB68944200D004B9EC688B42B1
:104BBC0007D05A7BD20604D1DA897F2A01D9A2699F
:104BCC002AB1A34202D0204600F096FA23466B612C
:104BDC0038BD00BF14090020B3F1FF3F08BFB2F18C
:104BEC00FF3F03D00249183000F028BB704700BFCC
:104BFC001F65000070B590F90D200146002A437B1B
:104C0C0004DA03F07F03437301F00CFC1C4C4B7B68
:104C1C00224663F07F034B7352F8183FE0699342CE
:104C2C0007D1C1E900200160E16111E09842F8D0A0
:104C3C001B68002BF5D091F90E5093F90E60B5421C
:104C4C00F4D0AE42F2DD5868C1E900300160596021
:104C5C00A569A368954200D005B9E5688B4207D0D9
:104C6C005A7BD20604D1DA897F2A01D9AA692AB1E2
:104C7C00AB4202D0284600F03FFA2B46636170BD70
:104C8C0014090020F8B5DDE906670D4B0C46986851
:104C9C0011460C4A1060EFF31182202282F3128825
:104CAC00BFF36F8F9D68284601F0CEFB2846324635
:104CBC003B46FFF791FF2046BDE8F840FFF708BFE1
:104CCC00140900203409002049B9EFF3058030B9EC
:104CDC00054B5A699B689A4201D0FFF7F9BE81F3E4
:104CEC001188BFF36F8F704714090020034648B931
:104CFC00EFF3058232B9064A51699268914201D0AC
:104D0C00FFF7E6BE83F31188BFF36F8F704700BFC8
:104D1C0014090020EFF31181202383F31288BFF3D1
:104D2C006F8F054B9A68D37B013BD37381F311884A
:104D3C00BFF36F8F704700BF1409002070B5EFF3FD
:104D4C001186202383F31288BFF36F8F144DAB6849
:104D5C00DA7B0132DA732A4652F8184F944200D0AB
:104D6C0004B9EC685A7BD20604D1DA897F2A01D9BE
:104D7C00A2692AB1A34202D0204600F0BDF9234615
:104D8C006B6186F31188BFF36F8FEFF311802023D3
:104D9C0083F31288BFF36F8FBDE87040FFF7A6BF97
:104DAC0014090020024B03F11802C3E906227047D4
:104DBC001409002070B5EFF31186202383F31288B9
:104DCC00BFF36F8F1B4CA168E0690B68814214BF65
:104DDC001A46002249680B605960A368E1692AB938
:104DEC00154AC3E900210B60E3610CE093F90E0056
:104DFC0092F90E50A84218D0854216DD5168C3E9CD
:104E0C0000210B605360A5690B4B9D4200D005B986
:104E1C00E568A3689D4202D0284600F06DF96561F3
:104E2C003046BDE87040FFF753BE8A42D8D01268B6
:104E3C00D5E700BF140900202C090020F8B550EA72
:104E4C00010306460C4603D1FFF7B4FF0020F8BD62
:104E5C00EFF31187202383F31288BFF36F8F124D6A
:104E6C00124BA8681860FFF78DFEA86823463246DF
:104E7C000F49183000F0E2F9AA680446537B384613
:104E8C0043F004035373FFF723FEAB68D3E90A2303
:104E9C00B3F1004F08BF002AD8D101F093FB201AC0
:104EAC0020EAE070D3E700BF140900203409002089
:104EBC001F65000038B504460D46FFF7BFFFB5F17E
:104ECC00FF3F08BFB4F1FF3F0246204618D0002335
:104EDC004FF47A7447F611201946C2FB040147F6C9
:104EEC001222904271F100020BD3084B834243F61D
:104EFC0008538B4107D347F612220023FBF7B8FA6D
:104F0C0038BD1846FCE76FF00040F9E7ED85FFFF70
:104F1C0038B50446EFF31185202383F31288BFF3D1
:104F2C006F8F437B5B070FD5183001F023FB637B3E
:104F3C00204623F004036373FFF7E2FD2946BDE826
:104F4C0038400448FFF7C0BE85F31188BFF36F8F5C
:104F5C0038BD00BF54090020014B9868704700BF52
:104F6C00140900202DE9F8430446077BEFF3118563
:104F7C00202383F31288BFF36F8F437B190705D56A
:104F8C0085F31188BFF36F8FBDE8F883D90943F01F
:104F9C0008025AD14273A36813B1204601F04AFAB1
:104FAC0004F1180001F0E6FAA66D04F15808B045BA
:104FBC0011D04FF0000976B1304601F03BFA06F102
:104FCC00180001F0D7FA3046C6F87890FFF798FD34
:104FDC00A66DB045EFD1DFF8B880D8F808309C4208
:104FEC003BD1EFF30589B9F1000918BF4FF0010966
:104FFC00D8F81860274A964200D00EB9D8F80C6041
:10500C00B34202D0304600F077F8C8F81460B9F11A
:10501C00000F02D02048FFF74FFDD8F808309C4213
:10502C0031D1EFF3058373BB227BD20718D428460A
:10503C00FFF74EFDFB07A7D5002383F31188BFF3C1
:10504C006F8F0423184602DF9EE703F07F0343F0C3
:10505C000803437301F0E6F99DE74FF00009C7E739
:10506C0085F31188BFF36F8F83F31188BFF36F8FB4
:10507C000423184602DFEFF31180202383F31288F8
:10508C00BFF36F8FD4E785F31188BFF36F8FD1E730
:10509C00140900202C090020080700200122044BD1
:1050AC00C01A044BC0105843034B1A54704700BF2E
:1050BC0088070020ABAAAAAA54090020C3897F2B19
:1050CC0012D80A4B1B6863B1094B90F90E201B6870
:1050DC009A4209DB437BDB0606D1064BC31A18BF89
:1050EC00012303F0010070470023FAE7D8000020E9
:1050FC00380900200806002070B50E4B0E4C1E7CA3
:10510C00054606EB460304EBC304204601F032FAD5
:10511C0000220A4B28469A55FFF7D0FF48B1084B9E
:10512C002046BDE870401A680649013AD31700F0D2
:10513C0085B870BD14090020880700205409002090
:10514C00D8000020A950000038B5EFF311852023BA
:10515C0083F31288BFF36F8F104B114A9C68106851
:10516C00A04206D1FFF7C8FF85F31188BFF36F8FFC
:10517C0038BD00211B7C11600A4AD35C002BF3D094
:10518C002046FFF79BFF0028EED0637BDB0602D1A5
:10519C002046FFF72FFD2046E4E700BF140900204E
:1051AC003409002054090020074808B5074A08496B
:1051BC00121A01F013F9BDE808400648064A0749DF
:1051CC00121A01F00BB900BF0000002038010020BA
:1051DC00D87C00000000002000000020D87C0000DB
:1051EC00024B1868984208BF00207047DC00002072
:1051FC00034B1B680BB9FDF75BBF0020704700BF6A
:10520C003C09002030B570B10B4B5B6898420AD05A
:10521C00036843B1D3E90421D0E90445121941EBE9
:10522C000501C3E90421D0E9003213605A60002360
:10523C00C0E9003330BD00BFDC000020B3F1FF3FFC
:10524C0008BFB2F1FF3F2DE9F84F044699461546C9
:10525C001F467BD08160EFF31188202383F31288E3
:10526C00BFF36F8F013279F1FF33DFF8E8A020DB59
:10527C00FFF7BEFFDAE90027013549F100092D18C7
:10528C0049EBE07306464FF00109C4E90453AD182D
:10529C0043EB0707FFF7A4FF0346DFF8BCE0DEF89B
:1052AC0004A0EBB9C4E900EACAF80040CEF8044007
:1052BC0028E06FF00103DAE900125B1A4FF0FF31BE
:1052CC0061EB02025B1B62EB0902012B72F1000124
:1052DC00BCBF012300224FF00009C0E90432D9E71A
:1052EC00D3E9041CD4E904208A4270EB0C0B24DAB9
:1052FC00891A5A686CEB0000C3E90410C4E9003247
:10530C0014605C60FFF76CFF84420ED1134B1B687A
:10531C005BB9B9F1000F02D1FFF76AFF06463046C0
:10532C0001F011F90021FDF7D3FE88F31188BFF3CA
:10533C006F8F28463946BDE8F88F521A60EB0C0087
:10534C009A45C4E90420ADD01B68AAE700252F4676
:10535C00EFE700BFA0070020DC0000203C09002084
:10536C002DE9F047EFF31185202383F31288BFF367
:10537C006F8FDFF8A0900026C9F800000027FFF718
:10538C002FFFDFF89480D9F80030D8E900ECD9175A
:10539C0050B1D0E90442A34271EB020A1BDAE41AC1
:1053AC0062EB0102C0E90442002413EB0E034CEB48
:1053BC0001012046C8E90031C9F8004001F0C3F8EA
:1053CC002146FDF785FE85F31188BFF36F8FBDE88D
:1053DC00F047FFF7B9BE14EB0E024CEBE473C0E9D7
:1053EC000467C8E90023FFF70DFF85F31188BFF3AD
:1053FC006F8F83689847EFF31185202383F312880E
:10540C00BFF36F8FD9F800301B1BC9F80030FFF7C2
:10541C00E7FEB8E73C090020A007002010B5EFF329
:10542C001184202383F31288BFF36F8FFFF7E0FE04
:10543C000346054AD2E90001181841EBE37184F3E5
:10544C001188BFF36F8F10BDA0070020F8B504467C
:10545C00EFF31187202383F31288BFF36F8F026859
:10546C0022B187F31188BFF36F8FF8BDD0E90A36EC
:10547C00581C46F10001022871F1000127D3012BC1
:10548C0076F10001BCBF012316465D1E46F1FF36C6
:10549C0001F09CF8013041F10001401946EB01018B
:1054AC00012871F1000139DB01F090F8013041F174
:1054BC0000016FF00102401946EB01034FF0FF3180
:1054CC00121A61EB030320461749FFF7B7FE236B53
:1054DC0001332363236A6BB187F31188BFF36F8F9A
:1054EC002046236A9847EFF31187202383F3128811
:1054FC00BFF36F8F54F8185FA542B2D0002DB0D017
:10550C00284600F0D8FF0023AB6787F31188BFF360
:10551C006F8F2846BDE8F84000F0BEBF6FF0010267
:10552C004FF0FF33CFE700BF595400002DE9F04195
:10553C0005461C4690461F46EFF31186202383F345
:10554C001288BFF36F8FB4F1FF3F08BFB2F1FF3F7A
:10555C0005D186F31188BFF36F8FBDE8F081531C22
:10556C0074F1FF3309DB012A74F10003BCBF012283
:10557C00002412F1FF3844F1FF37284600F0FAFFFF
:10558C00DDE906010023C5E90A012B6342463B46CF
:10559C0028460249FFF752FEDBE700BF59540000D2
:1055AC00704703460A4619790123006803FA01F192
:1055BC0003691B68194218BF82F0010212B183689B
:1055CC00DB68184783681B69FBE7034670B41979DD
:1055DC00DB88006843F4C0220124056913F0010F35
:1055EC002B6804FA01F4866814BF2343A3432B6091
:1055FC00336870BC184700EBC10040884008704706
:10560C00F8B50346FFF7F7FFB0FA80F0C0F11F00C2
:10561C0003EB800CDCF81060CA00171D0C46063238
:10562C008DB256B9012101FA00F0D9680143D96055
:10563C00CCF81040DD539D52F8BDF1000431585A9E
:10564C00D85303EBC0009E52C5805D52F4E7043A78
:10565C002DE9F041CC1D114424F0070421F0070181
:10566C000E1BF708B7FA87F24FF00008C2F12405B9
:10567C00AD000735C2F12002ED0804604146A76079
:10568C00C4F80C80920004F1100000F0D6FF6B00FF
:10569C0043F0010363807B1B04EBC5025900A4F8A3
:1056AC0000805180A21924F83550A2F80280A3532F
:1056BC0004EBC7035A88294642F001025A8020465F
:1056CC00BDE8F041FFF79CBF70B5002502462846A7
:1056DC00144614F8013B0BB9184609E098B18D42F9
:1056EC0007D1702B04D0A3F140023A2A0BD800202A
:1056FC0070BDA3F140063A2E05D853780135941CA1
:10570C00002BE9D00020252B224608BF80F0010099
:10571C00DEE70FB407B504A951F8040B019100F0B2
:10572C009CFA03B05DF804EB04B0704710B5036944
:10573C00024613F0080009D11368D4689C429BBF41
:10574C000120126AE31AD31A0B6010BD002318460D
:10575C00FAE713B501A90446FFF7E8FF20B1019B56
:10576C00E268013B13440193206A019BC01A013883
:10577C0002B010BD10B5044650182269236AD20736
:10578C0002D5013B184010BD984228BFC01AFAE759
:10579C0010B504460A46C168FFF7ECFF2369E060C8
:1057AC0023F00803236110BD38B50D46C2698B0088
:1057BC00016843F00203044642F8213001682A468E
:1057CC00FFF7D8FFE3686168984208BF236920603F
:1057DC0008BF43F008032A46204608BF2361FFF7A1
:1057EC00C9FF606038BD2DE9F74FC768C6699B4695
:1057FC0006EB8703009316F82730044603F00303E7
:10580C00022B884691464FF000030BD01360CBF867
:10581C00003023699B0713D44FF0000A504603B0A5
:10582C00BDE8F08F56F8271013608908CBF80030CC
:10583C00EFD0FFF7ADFFE368A3604FF0010AEDE78F
:10584C00A36906EB8700984716F82720054612F047
:10585C00010AE1D012F002021FD0B8F1000F03D000
:10586C0041462046FFF7A0FF61682A462046FFF715
:10587C0081FFD4E902219142606006D12A4620467C
:10588C00FFF778FF4FF0000AA060A2682260E26088
:10589C00226942F008022261C0E7014620460192CB
:1058AC00FFF776FFE368A360B8F1000F04D021681E
:1058BC00E369019A43F8212005EB0802CBF800209C
:1058CC0021682046FFF756FF2369206043F0080348
:1058DC00236116F827306FF3000306F82730009B7E
:1058EC00C9F80030A9E770B504461546FFF742FF2A
:1058FC002368834205D12369216023F008032361C7
:10590C0070BDE269AB0043F0020342F821306168DC
:10591C002A462046FFF72EFF6060F1E738B5036991
:10592C0004465B0706D5456AFFF713FF85422CBF7B
:10593C006562606238BD38B50D4604461C220021F4
:10594C0000F07BFE0022EB68A361AB6863612B68FF
:10595C00E3616B68626223622A6923B1591E1942A2
:10596C0008BF42F001022261012204F1280000214B
:10597C00BDE8384000F03FBD2DE9F04F002587B061
:10598C000093036A04468B420E469246A946039541
:10599C00059539D3EFF3118B202383F31288BFF3D2
:1059AC006F8F059AD8462AB129462046FFF79BFFF0
:1059BC000023059304A92046FFF7B8FE0499074677
:1059CC00B1422AD32268E369204613F8221003EB74
:1059DC00820921F0030103F8221021683246FFF7F7
:1059EC00C9FEE3682060984212D0002788F3118822
:1059FC00BFF36F8F039929B162690AB120469047B2
:105A0C0000230393002FC5D1484607B0BDE8F08FA3
:105A1C00236943F008032361E7E718B12046FFF739
:105A2C00C3FEE3E7009B5AEA03021CD0019100F08D
:105A3C00EEFC0199B8B9BBF1000F14D187F31188B2
:105A4C00BFF36F8F5246009B04F12800FEF76AFFEC
:105A5C00EFF31188202383F31288BFF36F8FB0FA12
:105A6C0080F77F09C2E7204605AB03AA2568FFF73C
:105A7C00BAFE0746BAE770B50446836908460D4678
:105A8C0098470246EFF31186202383F31288BFF365
:105A9C006F8F2B78204643F001032B706168FFF762
:105AAC0069FE60602046FFF739FF86F31188BFF36B
:105ABC006F8F70BD2DE9F04104462027EFF311865E
:105ACC0087F31288BFF36F8F236913F0080FA36855
:105ADC0002D16268934200D9226AD21AE16932B9C2
:105AEC0086F31188BFF36F8F4FF0000833E011F885
:105AFC00232001EB830812F00300F1D0022803D11C
:105B0C0051F82350AD0805D1D00712D44046A369F3
:105B1C0098470546A1682A462046FFF72BFE2946E2
:105B2C00A0602046FFF734FE86F31188BFF36F8F19
:105B3C00C4E742F0020201F82320A3694046A5689D
:105B4C009847294602462046FFF714FEA06086F3CC
:105B5C001188BFF36F8F4046BDE8F081F8B504465D
:105B6C00836908460D4698470646EFF311872023B4
:105B7C0083F31288BFF36F8F2B786FF300032B70B6
:105B8C0023699B0705D5E268E36903EB82039D4219
:105B9C001AD12B786FF341032B70D4E9023199425F
:105BAC0004D132462046FFF7E5FDA0603146204681
:105BBC00FFF7EEFD87F31188BFF36F8F04F1280018
:105BCC00BDE8F840FEF77ABE2B6860F39F032B60AC
:105BDC00F0E7EFF31181202383F31288BFF36F8F6B
:105BEC00036913F0080F836802D14268934200D90D
:105BFC00026AD31A81F31188BFF36F8F181E18BF76
:105C0C0001207047704703785B075FBF03684288C9
:105C1C00C3F34A2303EB12105DBF173020F00700CB
:105C2C00800800207047002070470346D3E8EF0F30
:105C3C00421CC3E8E12F0029F8D1704738B500F0B9
:105C4C00C5FC4FF47A74A0FB040547F6122200231E
:105C5C0004FB0151FAF70CFC38BD1FB50023CDE94C
:105C6C0002011A4619461846CDE90033FBF746FDEA
:105C7C0005B05DF804FB0120FBF708BB4368DA7143
:105C8C0001224368196043685A71FBF7F1BA70B589
:105C9C00D2E901369B1B8B420C4615460AD313687E
:105CAC000A460146981900F0BBFC2046AB68234419
:105CBC00AB6070BD6FF01B00FBE770B50E46154670
:105CCC001946044618B9BDE87040FBF7DFBA33B18A
:105CDC00C2F34A231030120D184400F0A1FCC4E9A1
:105CEC0000562046BDE87040FBF772BC2DE9F3412D
:105CFC005F1C4FEA8708064608F1170020F00700E2
:105D0C0080080C461546FBF73BFB00238DF804700E
:105D1C00ADF805308DF8073068B10346019AA8F14B
:105D2C00040143F8102F2A46294452F8045B8A4296
:105D3C0043F8045FF9D100233146A20102F4E0726A
:105D4C0042EA482222F07F4222F4700222F03F0203
:105D5C0002B0BDE8F041FFF7B0BF07B501230192D7
:105D6C0001AAFFF7C3FF03B05DF804FB07B5CDE94B
:105D7C00002302236A46FFF7B9FF03B05DF804FB6A
:105D8C001FB5CDE90123069B01AA03930323FFF75B
:105D9C00ADFF05B05DF804FB01460068FBF712BDD2
:105DAC0008B5FBF76BFDBDE80840FBF78BBD0A4659
:105DBC000121FFF7D2BF00210120FBF703BD61B623
:105DCC0062B680F31188BFF36F8F704772B60023F1
:105DDC0083F31188BFF36F8FBFF34F8F30BF62B661
:105DEC00BFF36F8F704740E800F313F4803FD8B2D5
:105DFC0008BF6FF01500704730B50C684B6885B064
:105E0C000A894D890094013B24F01F04234402F0BD
:105E1C001F0242EA451223F01F0369468DF8082041
:105E2C000393FCF735F905B030BD436800205B687F
:105E3C00DB680B607047436802EA01005B6821EA8B
:105E4C0002015860002099607047436800205B682D
:105E5C0059607047436800205B68996070474368DD
:105E6C005A68136821EA03000B40506000209360CD
:105E7C00704710B503695868F8B1884219D19C680D
:105E8C000868A142586000D19860002008602AB1CF
:105E9C005A680A609A68596002B99960002010E04B
:105EAC00814206D10868206098688142EDD19C60DF
:105EBC00EBE7044600680028F2D1002AE8D16FF025
:105ECC00150010BD30B543681360057A446804EBC7
