:100000006010002091080000612C00007D080000B5
:100010007D0800007D0800007D0800007D080000CC
:10002000000000000000000000000000E1090000E6
:100030007D080000000000008D0900007D08000020
:100040002D0B00002D0B00002D0B00002D0B0000D0
:100050002D0B00002D0B00002D0B00002D0B0000C0
:100060002D0B00002D0B00002D0B00002D0B0000B0
:100070002D0B00002D0B00002D0B00002D0B0000A0
:10047C0007B51B4802F055FB1A4802F052FB1A480C
:10048C0002F04FFB194802F04CFB0021144802F01B
:10049C0034FB0021134802F030FB0021124802F01B
:1004AC002CFB0021114802F028FB114B0193019BFE
:1004BC005A1E01928BB90121094802F01EFB012141
:1004CC00084802F01AFB0121074802F016FB012133
:1004DC00064802F012FB00BFFDE700BFE7E700BFD4
:1004EC008C3A0000843A00009C3A0000943A0000D8
:1004FC000048E801014B1B68184700BF00000020B2
:10050C0030B585B004460D4610220021684602F035
:10051C00BAFD02238DF80230044B2A462146684668
:10052C00019302F08FF805B030BD00BF010500004B
:10053C0080B505460E461746984601F0AFFE0346B9
:10054C0002F00CFE0446DFF81890424649F80030E1
:10055C0039463046A84754F8090000F0FBF900BFB3
:10056C0008000000014B036000207047A43A000013
:10057C0008B5044802F056FBBDE80840024802F0FA
:10058C0051BB00BF483B00007D3B000030BFFFF774
:10059C00FDBF00BF2DE9F04105460B4EDFF82C8066
:1005AC00324606EB0807CC1B2046094902F05EFDDB
:1005BC00A01942460021083C02F065FD2C6707F1AA
:1005CC000800BDE8F08100BF00000000040000003E
:1005DC00783A0000054B5A699B689A421FBF044A3F
:1005EC00536843F080535360704700BFF4020020FF
:1005FC0000ED00E0154B9A6A12F0007F9A6A14BF66
:10060C001E201D2012F0807F9A6A18BF1F2012F442
:10061C00801F9A6A18BF202012F4002F9A6A18BF04
:10062C00212012F4802F9A6A18BF222012F4003F66
:10063C009A6A18BF232012F4803F9A6A18BF2420AC
:10064C006FEA02426FEA12429A62704700ED00E0D4
:10065C0010B5194B0246986A9C6A10F4805F14BF5F
:10066C001720162014F4006F9C6A18BF1820A405DC
:10067C0009D5986B986A000404D51AB19A6A22F4C9
:10068C0000429A6219200C4B9A6A12F4806F9A6A93
:10069C0018BF1A20D2050CD49B6A13F4005F18BF44
:1006AC001C20054A936A43F47F43936200230B702A
:1006BC0010BD1B20F5E700BF00ED00E010B51C4B92
:1006CC000246986A9C6A10F0100F14BF112010207B
:1006DC0014F0080F9C6A18BF1220A40709D5586B98
:1006EC00986A000604D51AB19A6A22F080029A62BE
:1006FC0013200F4B9A6A12F0010F9A6A18BF14203C
:10070C0012F0200F9A6A18BF1520D40658BF9B6AA6
:10071C00074B9A6A920642BF5A6A22F400525A62F6
:10072C009A6A42F0FF029A6200230B7010BD00BF60
:10073C0000ED00E0F0B5474B04465B6800258BB03C
:10074C00C3F3080385F31188BFF36F8F02F07F406A
:10075C00B0F17F4F11D102F00C0008280DD010071A
:10076C004CBF0C4601250022033B8DF80720032BC0
:10077C0005D8DFE803F02462665F2C46F3E700231C
:10078C009DF80720CAB902AE04F120073246206852
:10079C006168083403C2BC421646F7D1099A002D91
:1007AC0053D0C2F3080121B96FEA52226FEA4222F8
:1007BC000992184602A902F043FA0BB0F0BD254B82
:1007CC00DA6A9107DBD4DA6A002AD8DBDA6A5200DB
:1007DC00D5D55A69A16942F480725A61BFF34F8F23
:1007EC00BFF36F8F5A6931F8021C22F480725A6180
:1007FC00BFF34F8FBFF36F8F4DF60272914209D04A
:10080C009A6AD2B242B101200DF10701FFF756FFEF
:10081C000346B5E72368B3E79A6A12F47F4F05D015
:10082C0001200DF10701FFF713FFF1E79B6AB3F508
:10083C00803FA4D3FFF7DEFEEAE700200DF10701AD
:10084C00E4E700200DF10701EDE722F4FF7222F03E
:10085C000102ADE700ED00E0044B5A6942F01002D2
:10086C005A615A6922F008025A61704700ED00E0A3
:10087C00EFF30880EFF3098101B57246FFF75AFFD9
:10088C0001BD00BF002080F31488BFF36F8F0020E0
:10089C0080F30A8880F30B880F4880F3088800F0F7
:1008AC0055FD00200D490860BFF34F8F00F02CF868
:1008BC00202080F311880A484FF40061401880F31F
:1008CC000988EFF314800221084380F31488BFF3E6
:1008DC006F8F00F0C3F800006010002094ED00E072
:1008EC0020030020002318460649D1F89020C2F3BB
:1008FC000722934200DB7047C1F89830C1F8A00082
:10090C000133F6E700ED00E010B572B6002484F375
:10091C001388FFF7E7FF23464FF0FF300C4A03F133
:10092C0020010133102B42F82100F8D100234FF0A5
:10093C00FF30074A03F160010133102B42F821000C
:10094C00F8D162B6BFF34F8FBFF36F8F10BD00BFEE
:10095C0000E100E0084B9B6883420BD1EFF3058369
:10096C0043B1064B5A6842F080525A605A6A22F4DC
:10097C0000425A6201F098BCF402002000ED00E045
:10098C0011498A684FF030001044EFF3098C80E86D
:10099C00F01F202080F31288BFF36F8F0B4F4FF0A6
:1009AC0000664A698A603E60106F094C2060506F87
:1009BC000023536780F3118802F1300090E8F01F98
:1009CC008CF3098870470000F402002004ED00E06D
:1009DC00C00100201EF0040F0CBFEFF30880EFF3F2
:1009EC000980816911F8021C0229FFD001B57246F9
:1009FC0002F02CF901BD00BF00B2002807DB012377
:100A0C004109034A00F01F00834042F8213070472F
:100A1C0000E100E000B2002801F10101ACBF00F1DF
:100A2C006040064B4FEA4111C9B2ABBF00F56140C3
:100A3C0000F00F0080F800131954704714ED00E01B
:100A4C00044B054A23F07F039360BFF34F8FBFF332
:100A5C006F8F70470000000000ED00E008B5FFF755
:100A6C00EFFF074AD2F8883023F47003C2F88830BD
:100A7C0001F034FA01F00AFD00F042F801F06EFAD0
:100A8C0000ED00E042F8203C009B0B4942F81C3C76
:100A9C00019B21F0010142F8183C029B42F8081C12
:100AAC0042F8143C4FF0807342F8043C0023203A87
:100ABC0002654367704700BF3D05000000B5094B58
:100ACC0015469860026F084B0E461A602C4686F34A
:100ADC0009880020054B984720460021002200235E
:100AEC00034C2047F4020020C0010020772C0000AA
:100AFC003D0500001022014B1A61704700ED00E02B
:100B0C000023202040F20F1210B5044CE1180133E1
:100B1C00934281F80003F9D110BD00BF00E100E061
:100B2C0008B5EFF30583064A103B02EBC30152F8FC
:100B3C00330049688847BDE80840FFF74BBD00BF4C
:100B4C00DC3100001FB5094C094A23460121094834
:100B5C0000F0FAF800230393074B0121E41A01A8D3
:100B6C000193029400F0FAF804B010BD00F00220DA
:100B7C0000000020A43A00002000002010B50C7AE0
:100B8C000B6804F01F0223F01F031A43CB6864099F
:100B9C0023F01F03054943EA440343F00103C1F862
:100BAC009800C1F89C20C1F8A03010BD00ED00E009
:100BBC0010B5074BD3F89030C3F30723013B984291
:100BCC0002D8FFF7DBFF10BD6FF01500FBE700BF8D
:100BDC0000ED00E02DE9F04F0F46144606464FF0AD
:100BEC0000084D4D85B0B84580F29280D6F804903F
:100BFC00B9F1000F36D0B9F11F0F40F2878019F010
:100C0C001F0F40F08380D6F800A01AF01F0F7DD183
:100C1C00504602F03EF8834609EB0A00013802F018
:100C2C0038F8834572D11BF1160F6FD05C456DDD22
:100C3C00C5F898B0D5F89C10C5F898B0D5F8A03088
:100C4C0021F01F0143F01F0AD6E900321A449942E1
:100C5C0002F1FF391ED1CA4508D131465FFA8BF03B
:100C6C0002F020F808F101080C36BCE73146C5F853
:100C7C0098B0D5F89C3022F01F0203F01F031343E9
:100C8C00C5F89C30E0B202F00DF810F1160F3DD013
:100C9C00441CE7E7C5F898B0D5F8A020013B23F039
:100CAC001F0302F01F021343CA453146E0B2C5F8D8
:100CBC00A030E8D001F0F6FF10F1160F26D0C5F8E1
:100CCC0098B0D5F89C209DF808300AF1FF3A62F3F1
:100CDC0004038DF80830D5F8A0309DF808205B0887
:100CEC0063F347128DF80820D6E9003213440093C1
:100CFC0023F01F035344A3EB0903013023F01F031C
:100D0C006946C0B20393FFF753FFBEE76FF01504BB
:100D1C00204605B0BDE8F08F00ED00E00522044B45
:100D2C00C3F89420BFF34F8FBFF36F8F704700BF92
:100D3C0000ED00E0BFF35F8F0022024BC3F894205C
:100D4C00704700BF00ED00E010B5034C2278FFF7B0
:100D5C0041FF207010BD00BF1C0300202DE9F74F90
:100D6C00294D8A4606464FF00008AB46274FD04522
:100D7C001BDAD6F80490B9F1000F3FD03168084661
:100D8C00019101F086FF0199044609EB010001383D
:100D9C0001F07FFF84424FF014021D4B08D002FB80
:100DAC0008F36FF015024BF8032003B0BDE8F08F89
:100DBC0014F1160F2C60F8D01978A142F5DD02FB66
:100DCC0008B0C7F89840C7F89840D7F89C4000F195
:100DDC000801007B64F304000871D7F8A0000C79BB
:100DEC00400860F347140C71D7F89C1021F01F01D8
:100DFC006960D7F8A01021F01F01296108F10108E2
:100E0C0014350C36B3E700BFC401002000ED00E040
:100E1C001C030020F0B54149414CD1F890302568B5
:100E2C00C3F307239D4287B075D80020FFF782FFDC
:100E3C003C4BC1F8C030854216D13B4C01A8257003
:100E4C00FFF790FB00250646384FAE4213D1002029
:100E5C0023783249D1F89020C2F30722934254DB15
:100E6C00FFF75CFF00202FE0616801EB0011FFF73A
:100E7C0085FE0130DFE70199280101EB0513DA68E3
:100E8C003A40B2F5001F21D0B2F5800F2BD0B2F54D
:100E9C00801F38D15A689B680958013B22F01F000B
:100EAC0003440120844623F01F0340EA4C10CDE993
:100EBC0002218DF8100002A920780593FFF778FE27
:100ECC0000281DDA6FF0150007B0F0BD5A689B685A
:100EDC000958013B22F01F0003444FF0020C012083
:100EEC0023F01F03E1E75A689B680958013B22F085
:100EFC001F0003444FF0000C062023F01F03D4E71F
:100F0C0023780133237001359FE7C1F89830C1F87D
:100F1C00A00001339EE74FF0FF30D5E700ED00E075
:100F2C00B03A0000AAFF44001C0300200000F0FFB0
:100F3C0008B50649064821F00701C1F1005202F537
:100F4C003C3201F030FE002008BD00BF67100020CD
:100F5C00D801002008B5034A034B1A6000F006F8CC
:100F6C00002008BD0020A107040000200122024B34
:100F7C00C3F80424704700BF002008E02DE9F043BB
:100F8C0040F206354668D00648BF0320337B02EAA0
:100F9C00050558BFC2F3401087B001F01F07B5F527
:100FAC00837F144647EA43178DF8030045D00FD8CA
:100FBC00062D44D007D8B5B1022D14D06FF0150012
:100FCC0007B0BDE8F083B5F5807FF7D101250AE0C5
:100FDC0040F20222954234D0B5F5407F33D0B5F5BE
:100FEC00007FEBD1042522032FD5012372688B409F
:100FFC005360326982BB5F2F07F01F034FEA571112
:10100C0077D83E4A52F8212084F4803102EB8302D7
:10101C00D2F88030C1F30041C4F3404423F4706330
:10102C0044EA410423F00F031C4344EA800444EADD
:10103C000524C2F880400020C2E70925D3E7082523
:10104C00D1E70625CFE70525CDE7630341BF012393
:10105C0072688B409360CCE71036394630460DF100
:10106C00020200F0C3FD14F4403F80460CD1394617
:10107C00304601F044FF224B9845DCD130469DF8B8
:10108C00021000F01FFED6E74FF0000901AB394605
:10109C00304603AACDE90439CDE90199CDF80C907D
:1010AC0000F016FC164B984288D114F4003315D07E
:1010BC009DF8033084F48034C4F300448DF80E3072
:1010CC0039464B46304603AA8DF80C508DF80D402E
:1010DC0000F0EAFC0A4B9842CDD06FE7CDE904331F
:1010EC0039460DF10303304603AA039300F0F0FBDD
:1010FC00F0E7203352F82330FFDE00BFD83A00006F
:10110C000000AD0B4209012A034670B501D0BAB1FB
:10111C0070BD0D4E326951680029F9D0012503F0DC
:10112C001F030C689D400029F2D08A682A4002D027
:10113C0030464B6898472CB1236821461C46F2E791
:10114C00024EE7E72346F8E7BC3100009C31000073
:10115C0038B545682B69E3B11035284600F0A4FD7D
:10116C000446B0B90146284600F05EFD0B4B984290
:10117C0011D1224628460A4900F02AFD22460121B7
:10118C00DB20FFF747FC2246012140F20D10FFF750
:10119C0041FC002038BD6FF00400FBE70000AD0BF4
:1011AC0011110000F0B51646426801F01F04107BC7
:1011BC0087B044EA40141069002871D0B6F5001FBE
:1011CC0002F1100506D12146284601F09AFE0020B6
:1011DC0007B0F0BD0027B6F5800F01A80197476056
:1011EC003BD1B3F1007F14BF052304238DF80430E9
:1011FC000023CDE90403039393680DF1030723FA4D
:10120C0001F111F001013DD1B6F1A07F3AD104F00A
:10121C001F035F2C4FEA541003F1200346D8254AD4
:10122C0052F8202052F82330DB072BD43A462146C3
:10123C00284600F0DBFC204B984219D0029721463F
:10124C00284603AA00F044FB1C4B98422BD10122E8
:10125C002146284600F046FDB9E7B3F1C06F05D032
:10126C00B3F1007F14BF01230223BFE70323BDE7C3
:10127C003946284600F02EFD104B9842DED06FF018
:10128C000B00A5E73A462146284600F0AFFC0B4B75
:10129C009842D4D128469DF8031000F013FDCEE7F8
:1012AC006FF0850094E76FF0150091E751F823304B
:1012BC00FFDE00BFD83A00000400AD0B0000AD0B00
:1012CC0020220020084B83F82320084B084A1A6080
:1012DC00084B013A18604FF0E0235A6198611A6983
:1012EC0042F007021A61704700ED00E00002002096
:1012FC0040420F00FC010020064BD3F840231C2A6F
:10130C0005D1D3F84403431E58425841704700207E
:10131C00704700BF00C0FF0003689A070CD5036834
:10132C00DB070DD50922074BC3F80C250F22C3F898
:10133C00042501221A60FEE7034B0360EF3B0360B8
:10134C00704700BF00801050F000FA5008B5012320
:10135C003E4A3F48C2F800383E4AD2F840231C2A85
:10136C0004BF3D4AC2F80C34FFF7D6FF0830FFF734
:10137C00D3FF0830FFF7D0FF0830FFF7CDFF00F5A3
:10138C00F470FFF7C9FF354AD2F88C3043F4406350
:10139C00C2F88C300022D30003F57F0303F54043E1
:1013AC00D3F8001401310AD0D3F8001439B1D3F8B2
:1013BC0000140132D3F80434402A0B60EBD1234BD8
:1013CC00D3F84024002A3DD0FFF796FF48B1214BBB
:1013DC00D3F83423224B9A429EBF1C4B214AC3F8AC
:1013EC004026FFF789FF18B11F4B204AC3F8AC27E2
:1013FC00FFF782FF48B13422144BC3F82426D3F8EC
:10140C003C2622F40022C3F83C26124BD3F840337E
:10141C001C2B08D1164BD3F80026D20744BF6FF013
:10142C000102C3F800260323124A0C49C2F81835EE
:10143C00D1F88C3043F44063C1F88C300023C2F8EF
:10144C00A03508BDC822C3F84024BDE700001250E7
:10145C0000C50D5000C0FF000030055000ED00E04D
:10146C00001D0A1840E0A91E00A0085078000A04CC
:10147C0000E0105000B0045030B50468ACB1B4FAC0
:10148C0084F30122C3F11F03DBB29A4024EA020267
:10149C00D0E8EF5FA54204D1C0E8EC2FBCF1000FFF
:1014AC00F6D1EAD102480B7030BD0248FCE700BF10
:1014BC000000AD0B0200AD0B10B50368CB40DB0791
:1014CC0010D401238B40026843EA0201D0E8EF4FAD
:1014DC00944204D1C0E8EC1FBCF1000FF6D1F2D15C
:1014EC00014810BD0148FCE70000AD0B0400AD0B3A
:1014FC00036803F01F025F2B02604FEA53129ABF7E
:10150C00024B53F822000020704700BF143B000030
:10151C00034A4309D35C00F01F001844C0B2704763
:10152C00D13B000070B505460846FFF7F1FF3C21A2
:10153C002A79184B01FB0202083233F81200C1055C
:10154C0026D578240026C0F3432120F4F85023F844
:10155C0012002A7904FB02340E3434F8020F10F412
:10156C00807F03D0C0F34320814211D00136232E5B
:10157C00F3D10020C2EB02120A4443F83200782067
:10158C002A79BDE8704000FB02306030FFF794BF51
:10159C0070BD00BF04020020F0B50646002487B0E1
:1015AC00114F019117F8012B06AB03EBD20313F883
:1015BC00143C02F00702D34013F0010306D10134AE
:1015CC00032CEFD10023184607B0F0BD074A03AD3A
:1015DC0007CA85E8070055F824100A6A46F8242043
:1015EC000A62002AEBD0EEE7E13B0000783A0000FB
:1015FC0010B504460846FFF78BFF3C2303FB0400A1
:10160C00024B083033F81000400B10BD04020020D0
:10161C0010B504460846FFF77BFF3C2303FB040090
:10162C00034B083033F81000C0F3400010BD00BF6E
:10163C000402002010B504460846FFF769FF3C235E
:10164C0003FB0400034B083033F81000C0F34010C8
:10165C0010BD00BF0402002078232DE9F04F6F4C21
:10166C000E460C1BB4FBF3F4D0F81413DFF8B0B136
:10167C00C9B28BB041F400315BF83420009001F01A
:10168C00F2FB8103054638D50023E7000BEBC404BD
:10169C00CDE907330993636807A819460193FFF74F
:1016AC007BFF3B1D03934FF0000A5E4B0DF11C09B1
:1016BC000293029A12F8013B0292039A02EBD302B4
:1016CC001BF8022003F0070322FA03F3DA071AD4FB
:1016DC000AF1010ABAF1030F09F10409E9D14FF437
:1016EC0000310022009801F0BEFB019907A8FFF71A
:1016FC0053FF0028D7D125F400350124002D76D1D5
:10170C000BB0BDE8F08F484B53440493D9F800104C
:10171C000029DDD091FAA1F1B1FA81F1049B1C787A
:10172C0041EA44142046FFF7F3FE083036F81080E7
:10173C00C8084FEA98030593012319F8002001F01B
:10174C00070103FA01F122EA010209F8002006A8B8
:10175C000694FFF7CDFE069A059B203250F8222006
:10176C00C8F382075B07B846C2F3014223D5304663
:10177C00D7B22146424601F057FB06A80694FFF764
:10178C00B7FE069B203350F82330C3F301439F422E
:10179C0007D10021204601F038FB3946204601F0E4
:1017AC0034FB06A80694FFF7A3FE0122069B02FA5F
:1017BC0003F30362AAE7022A0DD10321204601F0AC
:1017CC0024FB07F00503012BEBD1424621463046A2
:1017DC0001F02AFBE5E702212046059201F015FBFA
:1017EC00032FF2D0059A032ADBD1022FECE795FAEE
:1017FC00A5F3B3FA83F3009904FA03F225EA020580
:10180C0003F5A27251F8222006EB43033046B3F8DD
:10181C006410C2F3014201F007FB6FE704020020E1
:10182C00203B0000E13B0000E13B00002DE9F743C9
:10183C0005460846FFF76CFE3C222B79204F02FB35
:10184C000303083337F813300E46DB07044635D54F
:10185C00284601F02FFB95F8049031464846FFF7D7
:10186C00E9FE60B14846FFF7C3FE0022D5F80080C0
:10187C0000B208EB8003C3F81025C3F810252846E6
:10188C003146FFF74FFE3C222B7901A802FB0344A3
:10189C000023083427F814300196FFF729FE019B2A
:1018AC0000EB8300D0F88020064B134043F002037A
:1018BC00C0F88030044803B0BDE8F0830348FAE771
:1018CC0004020020F0F0FCFF0000AD0B0400AD0B97
:1018DC002DE9F04F9046044685B00846FFF718FEF8
:1018EC00D8F800900F4606462579B9F1000F23D0A1
:1018FC002846FFF78DFE18B12846FFF79BFE58BB14
:10190C0000230DF10F02CDE900338DF80E308DF868
:10191C000F300DF10E014B46384601F02DFA3C23E9
:10192C0003FB05635D49083331F8132022F00202F2
:10193C0042F0010221F81320D8F80430002B3FD0DC
:10194C003946207993F80090D3F804A0FFF760FE95
:10195C0020B1BAF1000F26D0514835E03C226A4341
:10196C00DFF838E102EB060C0CF1080C3EF81C30E9
:10197C0023F02003DB04DB0C2EF81C30BAF1000F33
:10198C0011D0B9F1030FE7D8D8F8041020684968D2
:10199C0091F800A000EB8A00B9F1000F17D1C0F844
:1019AC001095C0F810953C2303FB05653B4A0835A0
:1019BC0032F8153023F01C0343EA890322F8153062
:1019CC00D8F8083063BB374805B0BDE8F08FD0F8C5
:1019DC0010B552442BF0030BC0F810B5206843EA45
:1019EC004A3300EB8A01D1F810050EEB420220F4C9
:1019FC00473020F47C70C1F8100541F6F070D1F836
:101A0C0010B500EA071040EA094040EA0B0043F029
:101A1C002003C1F81005A2F864702EF81C30C2E740
:101A2C003946D3E900852046FFF77CFDB8F1000F5D
:101A3C00C9D078232079194F4343FA18FB5898459D
:101A4C0004D153689D4201D100220CE0782303FBA2
:101A5C0000700DF10F016030FFF70EFD114B984235
:101A6C00B2D19DF80F203C212379C3EB031313440F
:101A7C0047F833802379C3EB0313134407EBC303F9
:101A8C005D60237901FB0363083337F8131041EAD7
:101A9C00422242F4807227F8132094E704020020BB
:101AAC000400AD0B0000AD0B2DE9FF4705460846C1
:101ABC0017461E46FFF72CFD8946044687B395F85A
:101ACC0004804046FFF7A4FD18B94046FFF7B2FD6D
:101ADC0068BB3C2303FB0848DFF8E4A008F10808C6
:101AEC003AF8183013F01C0F02D07B78012B1ED063
:101AFC0001238DF80F3000237A1CCDE90073484682
:101B0C00BB1C0DF10F0101F037F93C222B7902FBC4
:101B1C00034308333AF8132042F003022AF8132047
:101B2C00002E4BD049462879FFF772FD18B925488D
:101B3C0004B0BDE8F08700214FF03C0C30782B68E6
:101B4C00820003EB8003C3F81015C3F810152B7932
:101B5C001B490CFB0343083331F8137027F460471F
:101B6C0027F0200721F8137077783FB32B68B678ED
:101B7C001A44D2F810E5144B3F040EEA0303C2F8E2
:101B8C00103541F6F07307F4403703EA09133605B4
:101B9C00D2F810E53B4306F48016334343EA0E03B8
:101BAC00C2F810352B790CFB0344083431F814308F
:101BBC0043EA403343F0200321F814300348B7E7DD
:101BCC00040200200400AD0B0FE0ECFF0000AD0B95
:101BDC0030B578250479044B05FB0434A1600179F8
:101BEC0005FB0133DA6030BD0402002070B50679C4
:101BFC0014463046FFF71EFD68B10846FFF788FC17
:101C0C003C2303FB0600054B083033F81030044826
:101C1C005B0B237070BD0348FCE700BF040200207F
:101C2C000000AD0B0400AD0BF8B506460779782023
:101C3C00194D00FB075393F8744054BB18464622C9
:101C4C002146103001F01FFA3179144A336852F8EA
:101C5C00316021468E4212D10022C3F30830C3F802
:101C6C0044210130D3F84421FEF7C6FE782303FB50
:101C7C00075501230A4885F874302B66F8BDCAB2A3
:101C8C00920002F58070442A04BF1C501A5801318E
:101C9C00E0E70448F2E700BF04020020203B00000C
:101CAC000000AD0B0C00AD0B78210279044B01FB4D
:101CBC00023393F87400003818BF0120704700BF3E
:101CCC00040200200079024B03EB8000FFF7F4BB09
:101CDC00080000200079024B03EB8000FFF7CCBB1F
:101CEC00080000202DE9F74390F80490044648467C
:101CFC001746FFF79FFC0D46266800B34846FFF7D2
:101D0C0087FC8046D8B94846FFF772FC05B2AD0097
:101D1C0005F5807246F802802168B2582944D1F842
:101D2C00102542F00102C1F810252FB101222168C3
:101D3C0002FA00F3C1F8143303B0BDE8F083D6F80F
:101D4C00143328469B035CBF4FF40033C6F814339E
:101D5C00FFF7DEFB3C22237902FB03000E4B08301D
:101D6C0033F81030C3F38203042B11D0052B11D0A0
:101D7C0001A80195FFF7BCFB019BC168D94001F09C
:101D8C0001010231284603B0BDE8F04301F03DB833
:101D9C000321F7E70221F5E704020020014902487C
:101DAC00FFF75ABC0402002000A00D500149024864
:101DBC00FFF752BC7C02002000C0105038B5EFF386
:101DCC001185202383F31288BFF36F8F064B9C6819
:101DDC0001F0A1F885F31188BFF36F8F2046BDE8A1
:101DEC003840FEF7B7BD00BFF402002038B50A4BEF
:101DFC0053F82040013053F82050A54200D838BD8C
:101E0C00606830B1037FDB0701D401F087F8083438
:101E1C00F3E723689847FAE7303B0000012270B5DE
:101E2C00294B032086B01A70FFF7E0FFFEF7A0FBEA
:101E3C000420FFF7DBFF254C254D2646AE4204F16E
:101E4C00300410D300F0B6F9204C224EAC4226D30D
:101E5C0000F0C4F9FEF70CFB1F4A137B23F00103BF
:101E6C00137306B070BD54F80C3C059354F8103C39
:101E7C00049354F8143C039354F8183C029354F80C
:101E8C001C3C019354F8203C009354E90A2354E978
:101E9C000C0100F0C5F854F8303C5E65CDE7D4E990
:101EAC000A23B3F1FF3F08BFB2F1FF3F05D052EA5E
:101EBC000301206803D100F0CDF93034C6E7314678
:101ECC00183000F02DFBF8E71D030020543A0000F9
:101EDC00543A0000F12F0000A000002008B5034880
:101EEC00034A0021121A01F030F808BD200000202E
:101EFC00200300200023012270B586B0CDE9042315
:101F0C000F220193CDE9023214234FF4A0720E4D2F
:101F1C000E4E03FB00550E4906EBC016044602FBA1
:101F2C0000110C4B3046009500F07AF8737B2C7442
:101F3C0023F004037373084B013403EBC423EE60EA
:101F4C006B6006B070BD00BFF402002020000020C2
:101F5C00200B00205F2F000020030020BFB50020C5
:101F6C00FFF744FF264B83F308880024E023254D1C
:101F7C00254F85F82230EC772C766C76AC7685F88C
:101F8C0020406B6A43F4E0236B62FEF765FCFEF7BE
:101F9C00B1FD4FF0FF33AB62EB62FEF73BFFFEF798
:101FAC00D1FD1A4800F07AF801F05FF80120FFF734
:101FBC001DFF0220164DFFF719FF00F043F9154BDA
:101FCC0015495D61154B4FF480620593012328463A
:101FDC00CDE90343CDE901443B46009400F020F8E1
:101FEC0006466A7B284622F004026A7300F0CEFF94
:101FFC002046FFF77FFF3A4631462846FEF75EFD46
:10200C00200B002000ED00E0291E00002001002024
:10201C00A0000020F4020020600C0020E43B000033
:10202C002DE9F043984685B000F15803C0E916330A
:10203C00109B002603730423073222F00705437319
:10204C000F9B01EB05090F4683734946C0E90666F1
:10205C008660C6730446FEF79DFA0E9B073020F08F
:10206C000700A066C4E9187502930D9BA9EB000943
:10207C0001930C9B4A460093394643462046FEF793
:10208C0001FD054B66659B6803B1DB6E4846E36654
:10209C0005B0BDE8F08300BFF402002040F201134C
:1020AC0083810023C0E91833C366014B98607047E5
:1020BC00F40200206FF00A01084A936899670849F6
:1020CC0058674B6843F080534B60002383F31188AF
:1020DC00BFF36F8F9368986F704700BFF4020020B6
:1020EC0000ED00E070B590F90D20437B002A36DB43
:1020FC00D90634D11B4C63F07F032246437352F84C
:10210C00183FE169934207D1C0E900210860E06102
:10211C0011E09942F8D01B68002BF5D090F90E50C5
:10212C0093F90E60B542F4D0AE42F2DD5968C0E9C5
:10213C00003108605860A569954200D005B9E56882
:10214C00A3685A7BD20604D1DA897F2A01D9AA69FD
:10215C0032B1AB4202D0284600F070F9656170BD17
:10216C006361FCE7F402002049B9EFF3058030B954
:10217C00054B5A699B689A4201D0FFF79BBF81F3CC
:10218C001188BFF36F8F7047F4020020034648B9E3
:10219C00EFF3058232B9064A51699268914201D037
:1021AC00FFF788BF83F31188BFF36F8F704700BFB1
:1021BC00F4020020EFF31181202383F31288BFF384
:1021CC006F8F054B9A68D37B013BD37381F31188D6
:1021DC00BFF36F8F704700BFF402002070B5EFF3B0
:1021EC001186202383F31288BFF36F8F144DAB68D5
:1021FC00DA7B0132DA732A4652F8184F944200D037
:10220C0004B9EC685A7BD20604D1DA897F2A01D949
:10221C00A2692AB1A34202D0204600F00FF923464E
:10222C006B6186F31188BFF36F8FEFF3118020235E
:10223C0083F31288BFF36F8FBDE87040FFF7A6BF22
:10224C00F4020020024B03F11802C3E90622704786
:10225C00F402002038B50446EFF31185202383F3F4
:10226C001288BFF36F8F437B5B070FD5183000F0DC
:10227C00D4FE637B204623F004036373FFF732FF25
:10228C002946BDE838400448FFF76EBF85F3118836
:10229C00BFF36F8F38BD00BF1E030020014B986841
:1022AC00704700BFF40200202DE9F8430446077B79
:1022BC00EFF31185202383F31288BFF36F8F437BD9
:1022CC00190705D585F31188BFF36F8FBDE8F88327
:1022DC00D90943F008025AD14273A36813B12046BE
:1022EC0000F04AFE04F1180000F097FEA66D04F110
:1022FC005808B04511D04FF0000976B1304600F0C7
:10230C003BFE06F1180000F088FE3046C6F87890C7
:10231C00FFF7E8FEA66DB045EFD1DFF8B880D8F82E
:10232C0008309C423BD1EFF30589B9F1000918BF85
:10233C004FF00109D8F81860274A964200D00EB920
:10234C00D8F80C60B34202D0304600F077F8C8F8E9
:10235C001460B9F1000F02D02048FFF79FFED8F8A7
:10236C0008309C4231D1EFF3058373BB227BD2073B
:10237C0018D42846FFF79EFEFB07A7D5002383F34E
:10238C001188BFF36F8F0423184602DF9EE703F01A
:10239C007F0343F00803437300F0E6FD9DE74FF025
:1023AC000009C7E785F31188BFF36F8F83F311889A
:1023BC00BFF36F8F0423184602DFEFF31180202345
:1023CC0083F31288BFF36F8FD4E785F31188BFF3C3
:1023DC006F8FD1E7F40200200C03002020010020B5
:1023EC000122044BC01A044BC0105843034B1A541F
:1023FC00704700BFA0010020ABAAAAAA1E030020B0
:10240C00C3897F2B12D80A4B1B6863B1094B90F917
:10241C000E201B689A4209DB437BDB0606D1064B78
:10242C00C31A18BF012303F0010070470023FAE719
:10243C0010000020140300202000002070B50E4B6B
:10244C000E4C1E7C054606EB460304EBC3042046EB
:10245C0000F0E3FD00220A4B28469A55FFF7D0FF07
:10246C0048B1084B2046BDE870401A680649013A4D
:10247C00D31700F055B870BDF4020020A001002065
:10248C001E03002010000020ED230000074808B5B3
:10249C00074A0849121A00F05AFDBDE808400648E0
:1024AC00064A0749121A00F052BD00BF0000002076
:1024BC0020000020F83B000000000020000000205D
:1024CC00F83B0000024B1868984208BF0020704788
:1024DC0014000020034B1B680BB900F04ABC002011
:1024EC00704700BF1803002030B570B10B4B5B6810
:1024FC0098420AD0036843B1D3E90421D0E90445DA
:10250C00121941EB0501C3E90421D0E90032136033
:10251C005A600023C0E9003330BD00BF1400002016
:10252C00B3F1FF3F08BFB2F1FF3F2DE9F84F04466E
:10253C00994615461F467BD08160EFF31188202306
:10254C0083F31288BFF36F8F013279F1FF33DFF819
:10255C00E8A020DBFFF7BEFFDAE90027013549F1DF
:10256C0000092D1849EBE07306464FF00109C4E948
:10257C000453AD1843EB0707FFF7A4FF0346DFF83E
:10258C00BCE0DEF804A0EBB9C4E900EACAF80040EC
:10259C00CEF8044028E06FF00103DAE900125B1A70
:1025AC004FF0FF3161EB02025B1B62EB0902012B66
:1025BC0072F10001BCBF012300224FF00009C0E9F9
:1025CC000432D9E7D3E9041CD4E904208A4270EB25
:1025DC000C0B24DA891A5A686CEB0000C3E904105E
:1025EC00C4E9003214605C60FFF76CFF84420ED1CA
:1025FC00134B1B685BB9B9F1000F02D1FFF76AFFEF
:10260C000646304600F0F2FC002100F0B1FB88F3E6
:10261C001188BFF36F8F28463946BDE8F88F521AE0
:10262C0060EB0C009A45C4E90420ADD01B68AAE706
:10263C0000252F46EFE700BFB80100201400002052
:10264C00180300202DE9F04F43688DB015468046E5
:10265C00029383789A0740F10D8100240E78002EA6
:10266C0000F00A81252E0BD04B1C039301344146FC
:10267C003046029B98470028C0F2F6800399EDE79C
:10268C004E788B1C252E0393F0D00027B946BB4601
:10269C00BBF11F0F38D8A6F12003102B0AD8DFE8A6
:1026AC0003F02A0909300909092109090928092D0A
:1026BC0009091F00A6F13003092B33D92A2E37D173
:1026CC001BF0400F55F8043B40F08280002BA7BF55
:1026DC004BF0200B9946C3F100094BF0280B01E09D
:1026EC004BF0010B039B13F8016B0393002ECFD11E
:1026FC0030E04BF0020B4BF0040BF3E74BF0080B04
:10270C00F0E74BF0100BEDE7BBF17F0F19D8A6F1FA
:10271C003003092BD2D81BF0400F03D00A2101FB48
:10272C000737DFE70A214BF0200B01FB0939D9E70A
:10273C002E2E06D11BF0400F40F09E804BF0400B2C
:10274C00D0E76C2E31D02BD8682E36D06A2E3CD0E8
:10275C004C2E3AD0002F46F02003B8BF2BF040028D
:10276C00A3F16501BCBF00271FFA82FB022901D926
:10277C00612B2FD107350727DFF8ACA225F0070511
:10278C0008351BF0080F66D00AEB070B56465E4562
:10279C0063D1A4EB0A0AA9EB070906EB0A026FE165
:1027AC00742E9FD07A2E9DD0D4E71BF0800F18BFCB
:1027BC004BF4007B4BF0800B94E71BF4807F18BF2D
:1027CC004BF4007B4BF4807B8CE74BF4207B89E74C
:1027DC001F4687E7A6F16301122900F2F080DFE8BB
:1027EC0011F013004F00EE00EE00EE00EE004F0073
:1027FC00EE00EE00EE00EE00EE00FE00E900EE0052
:10280C00EE001B00EE00AF0055F8043B01270DF164
:10281C00180A8DF81830B4E755F804AB834BBAF1AD
:10282C00000F08BF9A461BF0400F504614BF3946A4
:10283C004FF0FF3100F02FFC0746A2E74146202065
:10284C00029B984700280FDB013EB742F6D34C445D
:10285C00B146A41B98E74E46F7E7414616F8010B24
:10286C00029B9847002892DA98F8023043F0040350
:10287C0088F802304FF0FF3420460DB0BDE8F08FE1
:10288C001BF0800F34D01BF4007F2CD0073525F0C3
:10289C000705AA4669685AF8080B2BF010050029A1
:1028AC00ADB237DA404245F4806561EB41010DF180
:1028BC00180B0A235A4600F0FAFBA0EB0B0301930A
:1028CC006B0662D5019B25F001019F4289B240F352
:1028DC00A180002E00F0998015F0100240F09C8031
:1028EC00BB460D4623E0AA465AF8040BC117D4E7A1
:1028FC00AA461BF4807F5AF8041B01D10846F5E761
:10290C001BF4007F19BF48B241F3C01108B241F368
:10291C00C031C2E750EA0103C9D11BF0400FC6D049
:10292C00002FC4D12BF01102BB46019795B240F297
:10293C00064115EA01021CBF0BF1010B00222CE031
:10294C002BF010020A231FFA82FB1BF0800C49D0DB
:10295C001BF4007115BF0735AA4625F007055AF878
:10296C00040B1EBFAA4669685AF8080B50EA010509
:10297C0045D12BF016051BF0400FADB242D0002F05
:10298C0040D12BF01702019795B215F0100248D0E8
:10299C00019B002E42D103F1010B29075AD4EB07FE
:1029AC0006D5D9456FDDA9EB0B030199CB465F1812
:1029BC005B4649E04BF0100B10237826C5E7782BCB
:1029CC0004D1C6F1780343F01003BEE7414625203D
:1029DC00029B98470028FFF647AF023447E60823CE
:1029EC000026B2E7AA461BF480715AF8040BBDD03E
:1029FC001BF400711ABFC0B2614680B2B6E72BF06F
:102A0C00060295B20DF1180B54E725F01105BB46E3
:102A1C00ADB28CE70D46B8E73B460D4603F1020B11
:102A2C00BBE7DDF804B082E7F03B0000E93B0000B7
:102A3C00CDE9043241462020029B98470028FFF63E
:102A4C0013AF049B059A01339945F1DCA4EB0B0100
:102A5C009B46CC180AB341463020029B984700286D
:102A6C00FFF602AF8EB901342744391B019B994202
:102A7C0024DC1D4655BB019AA9EB0B095546224493
:102A8C001446914433E0019F92E7023441463046AC
:102A9C00029B98470028E7DAE6E640F206410D4231
:102AAC00E2D015F0020F04F10104414614BF2B20B3
:102ABC00202015F4806F18BF2D20E9E74146302007
:102ACC00029B013498470028CFDACDE606AB013DD6
:102ADC004146585D029B98470028CBDAC4E6414634
:102AEC002020029B013498470028FFF6BDAEA9EBCD
:102AFC000403002BF3DCC1E5704703460A46197941
:102B0C000123006803FA01F103691B68194218BF1D
:102B1C0082F0010212B18368DB68184783681B6975
:102B2C00FBE7034670B41979DB88006843F4003284
:102B3C000124056913F0010F2B6804FA01F486686F
:102B4C0014BF2343A3432B60336870BC184700EBBE
:102B5C00C100408840087047F8B50346FFF7F7FFFF
:102B6C00B0FA80F0C0F11F0003EB800CDCF81060B1
:102B7C00CA00171D0C4606328DB256B9012101FA56
:102B8C0000F0D9680143D960CCF81040DD539D5258
:102B9C00F8BDF1000431585AD85303EBC0009E52D3
:102BAC00C5805D52F4E7043A2DE9F041CC1D114487
:102BBC0024F0070421F007010E1BF708B7FA87F27F
:102BCC004FF00008C2F12405AD000735C2F1200218
:102BDC00ED0804604146A760C4F80C80920004F133
:102BEC00100000F050FA6B0043F0010363807B1B74
:102BFC0004EBC5025900A4F800805180A21924F8F6
:102C0C003550A2F80280A35304EBC7035A88294617
:102C1C0042F001025A802046BDE8F041FFF79CBF0C
:102C2C00002070470FB407B504A951F8040B0191AB
:102C3C00FDF766FC03B05DF804EB04B07047704719
:102C4C00012801D1EFF30583FFF7B8B801460068FE
:102C5C00FFF7F6BF08B5FDF799FCBDE80840FDF796
:102C6C00B9BC00210120FFF7EBBF61B662B680F35F
:102C7C001188BFF36F8F704772B6002383F31188EE
:102C8C00BFF36F8FBFF34F8F30BF62B6BFF36F8F41
:102C9C00704740E800F313F4803FD8B208BF6FF0E0
:102CAC001500704730B50C684B6885B00A894D89A2
:102CBC000094013B24F01F04234402F01F0242EA5B
:102CCC00451223F01F0369468DF808200393FDF786
:102CDC006FFF05B030BD436800205B68DB680B609C
:102CEC007047436802EA01005B6821EA0201586000
:102CFC00002099607047436800205B6859607047FA
:102D0C00436800205B689960704743685A68136891
:102D1C0021EA03000B40506000209360704710B50F
:102D2C0003695868F8B1884219D19C680868A142B7
:102D3C00586000D19860002008602AB15A680A6077
:102D4C009A68596002B99960002010E0814206D15E
:102D5C000868206098688142EDD19C60EBE70446DE
:102D6C0000680028F2D1002AE8D16FF0150010BDE0
:102D7C007047002070470047F7B51646DDE9084755
:102D8C00019001A81D46FEF7B3FB019BB6F1000CA8
:102D9C0018BF4FF0010C00EB83000B1E18BF012372
:102DAC00002D43EA4C0314BF4FF00C0C4FF0000CF9
:102DBC00002C43EA0C0314BF4FF4706C4FF0000C62
:102DCC00002F43EA0C0314BF4FF4403C4FF0000CAF
:102DDC00D0F8802043EA0C0322EA030301B10978FE
:102DEC000EB13678760019430DB12D78AD00314314
:102DFC000CB12478240229430FB13F783F040C43D3
:102E0C003C43C0F8804003B0F0BD1FB50DF10F037B
:102E1C00019300238DF80F101A4619460093FFF703
:102E2C00ABFF05B05DF804FB70B5044608461646CA
:102E3C00FEF76EFB083034F810300D46DA0509D574
:102E4C00C3F3432304EBC3023146284654F8333012
:102E5C0052689847A3682BB131462846E268BDE812
:102E6C007040184770BDF0B5044600200127054698
:102E7C00844695420AD1D4F8443133B10023C4F8C6
:102E8C004431D4F8443140F40030F0BDEBB29B0037
:102E9C0003F580769B0807FA03F3194208D054F81F
:102EAC0006E0BEF1000F03D044F806C0A659184343
:102EBC000135DEE770B50679044630460D46FEF75F
:102ECC00B9FBB0B13046FEF7A3FB90B93046FEF724
:102EDC008FFB012322688340C2F81833226803B2A7
:102EEC0002EB8303D3F8102522F00302C3F810255C
:102EFC0070BD2846BDE870400021FFF786BFFEF785
:102F0C0095BCFFF7D7BFEFF31183202383F312880F
:102F1C00BFF36F8FFEE708B5FFF7F5FF10B54369F8
:102F2C00044633B90020E268537843F00103537030
:102F3C0010BD98470028F5D00028B8BF4042FF28A4
:102F4C00A8BFFF20E3681870EDE700F09CB800F014
:102F5C008DB8202408B5EFF3118384F31288BFF3E6
:102F6C006F8FFFF789FEF6E7D0E9003213605A60E5
:102F7C000023C0E90033704708B5FFF7F5FF437B2A
:102F8C0023F0020343730023836008BD10B5EFF3F5
:102F9C001184202383F31288BFF36F8FFFF7A2F8FD
:102FAC0084F31188BFF36F8F10BD014610B5EFF39A
:102FBC001184202383F31288BFF36F8F437B13F0AC
:102FCC00280F0AD183680BB1FFF7D6FF4B7B08465D
:102FDC0023F004034B73FFF785F884F31188BFF3D8
:102FEC006F8F10BD01211838FFF7DFBF08B50246FF
:102FFC00FFF768FA70B1D0E904319B1A61EBE27209
:10300C00B3F1004F72F1000104DA002AACBF18468C
:10301C00002008BD6FF00040FBE7024638B5EFF327
:10302C001185202383F31288BFF36F8F0368CBB114
:10303C00FFF748FA04461046FFF756FA00224FF005
:10304C0000438442C0E9042306D1FFF743FAFFF79B
:10305C00CDFF0021FFF78CFE002085F31188BFF314
:10306C006F8F38BD6FF01500F7E770470A44431EA9
:10307C00914200D1704710B511F8014B914203F801
:10308C00014FF9D110BD02440346934200D1704761
:10309C0003F8011BF9E70246014410B58A421346B6
:1030AC0003D01C780132002CF8D1181A10BDF0B5E1
:1030BC00C3F13707044603F01F031046FFB2082B79
:1030CC00E6B232D0102B3DD06508A40845EAC17594
:1030DC0044EA81748A082D1942EB5102290941EA0C
:1030EC0002716D1842EB1212290A41EA02616D1845
:1030FC0042EB1222290C41EA02416D1842EB1242BA
:10310C00AD1842F10002EC0844EA4274D10804EB19
:10311C008402A6EB4205EDB2092D0CD90134A5F1C0
:10312C000A0541F10001EDB212E0E40806F00705D2
:10313C0044EA4174C908303554EA010200F8015BD5
:10314C00BDD1F0BD240906F00F0544EA017409094C
:10315C00092D84BFED19EDB2EDE7000001480068C0
:08316C0070470000C0010020C3
:10317400610F000000000000000000009C3100000E
:1031840000000000BC310000CD120000000000006F
:083194003D0F000000000000E7
:10319C00BA3B0000E43A0000543A00001C00002046
:1031AC00E40100205D1100000000000000000000A0
:1031BC00C63B0000FC3A0000543A00001E00002000
:1031CC00F00100205D110000000000000000000074
:1031DC00000000006F2C0000000000006F2C0000AD
:1031EC00000000006F2C0000000000006F2C00009D
:1031FC00000000006F2C0000000000006F2C00008D
:10320C00000000006F2C0000000000006F2C00007C
:10321C00000000006F2C0000000000006F2C00006C
:10322C00000000006F2C0000000000006F2C00005C
:10323C00000000006F2C0000000000006F2C00004C
:10324C00000000006F2C0000000000006F2C00003C
:10325C00000000006F2C0000000000006F2C00002C
:10326C00000000006F2C0000000000006F2C00001C
:10327C00000000006F2C0000000000006F2C00000C
:10328C00000000006F2C0000000000006F2C0000FC
:10329C00000000006F2C0000000000006F2C0000EC
:1032AC00000000006F2C0000000000006F2C0000DC
:1032BC00000000006F2C0000000000006F2C0000CC
:1032CC00000000006F2C0000000000006F2C0000BC
:1032DC00000000006F2C0000000000006F2C0000AC
:1032EC00000000006F2C0000000000006F2C00009C
:1032FC00000000006F2C0000000000006F2C00008C
:10330C00000000006F2C0000000000006F2C00007B
:10331C00000000006F2C0000000000006F2C00006B
:10332C00000000006F2C0000000000006F2C00005B
:10333C00000000006F2C0000000000006F2C00004B
:10334C00000000006F2C0000000000006F2C00003B
:10335C00000000006F2C0000000000006F2C00002B
:10336C00000000006F2C0000000000006F2C00001B
:10337C00000000006F2C0000000000006F2C00000B
:10338C00000000006F2C0000000000006F2C0000FB
:10339C00000000006F2C0000000000006F2C0000EB
:1033AC00000000006F2C0000000000006F2C0000DB
:1033BC00000000006F2C0000000000006F2C0000CB
:1033CC00000000006F2C0000000000006F2C0000BB
:1033DC00000000006F2C0000000000006F2C0000AB
:1033EC00000000006F2C0000000000006F2C00009B
:1033FC00000000006F2C0000000000006F2C00008B
:10340C00000000006F2C0000000000006F2C00007A
:10341C00000000006F2C0000000000006F2C00006A
:10342C00000000006F2C0000000000006F2C00005A
:10343C00000000006F2C0000000000006F2C00004A
:10344C00000000006F2C0000000000006F2C00003A
:10345C00000000006F2C0000000000006F2C00002A
:10346C00000000006F2C0000000000006F2C00001A
:10347C00000000006F2C0000000000006F2C00000A
:10348C00000000006F2C0000000000006F2C0000FA
:10349C00000000006F2C0000000000006F2C0000EA
:1034AC00000000006F2C0000000000006F2C0000DA
:1034BC00000000006F2C0000000000006F2C0000CA
:1034CC00000000006F2C0000000000006F2C0000BA
:1034DC00000000006F2C0000000000006F2C0000AA
:1034EC00000000006F2C0000000000006F2C00009A
:1034FC00000000006F2C0000000000006F2C00008A
:10350C00000000006F2C0000000000006F2C000079
:10351C00000000006F2C0000000000006F2C000069
:10352C00000000006F2C0000000000006F2C000059
:10353C00000000006F2C0000000000006F2C000049
:10354C00000000006F2C0000000000006F2C000039
:10355C00000000006F2C0000000000006F2C000029
:10356C00000000006F2C0000000000006F2C000019
:10357C00000000006F2C0000000000006F2C000009
:10358C00000000006F2C0000000000006F2C0000F9
:10359C00000000006F2C0000000000006F2C0000E9
:1035AC00000000006F2C0000000000006F2C0000D9
:1035BC00000000006F2C0000000000006F2C0000C9
:1035CC00000000006F2C0000000000006F2C0000B9
:1035DC00000000006F2C0000000000006F2C0000A9
:1035EC00000000006F2C0000000000006F2C000099
:1035FC00000000006F2C0000000000006F2C000089
:10360C00000000006F2C0000000000006F2C000078
:10361C00000000006F2C0000000000006F2C000068
:10362C00000000006F2C0000000000006F2C000058
:10363C00000000006F2C0000000000006F2C000048
:10364C00000000006F2C0000000000006F2C000038
:10365C00000000006F2C0000000000006F2C000028
:10366C00000000006F2C0000000000006F2C000018
:10367C00000000006F2C0000000000006F2C000008
:10368C00000000006F2C0000000000006F2C0000F8
:10369C00000000006F2C0000000000006F2C0000E8
:1036AC00000000006F2C0000000000006F2C0000D8
:1036BC00000000006F2C0000000000006F2C0000C8
:1036CC00000000006F2C0000000000006F2C0000B8
:1036DC00000000006F2C0000000000006F2C0000A8
:1036EC00000000006F2C0000000000006F2C000098
:1036FC00000000006F2C0000000000006F2C000088
:10370C00000000006F2C0000000000006F2C000077
:10371C00000000006F2C0000000000006F2C000067
:10372C00000000006F2C0000000000006F2C000057
:10373C00000000006F2C0000000000006F2C000047
:10374C00000000006F2C0000000000006F2C000037
:10375C00000000006F2C0000000000006F2C000027
:10376C00000000006F2C0000000000006F2C000017
:10377C00000000006F2C0000000000006F2C000007
:10378C00000000006F2C0000000000006F2C0000F7
:10379C00000000006F2C0000000000006F2C0000E7
:1037AC00000000006F2C0000000000006F2C0000D7
:1037BC00000000006F2C0000000000006F2C0000C7
:1037CC00000000006F2C0000000000006F2C0000B7
:1037DC00000000006F2C0000000000006F2C0000A7
:1037EC00000000006F2C0000000000006F2C000097
:1037FC00000000006F2C0000000000006F2C000087
:10380C00000000006F2C0000000000006F2C000076
:10381C00000000006F2C0000000000006F2C000066
:10382C00000000006F2C0000000000006F2C000056
:10383C00000000006F2C0000000000006F2C000046
:10384C00000000006F2C0000000000006F2C000036
:10385C00000000006F2C0000000000006F2C000026
:10386C00000000006F2C0000000000006F2C000016
:10387C00000000006F2C0000000000006F2C000006
:10388C00000000006F2C0000000000006F2C0000F6
:10389C00000000006F2C0000000000006F2C0000E6
:1038AC00000000006F2C0000A91D0000832D0000FB
:1038BC00000000006F2C0000000000006F2C0000C6
:1038CC00000000006F2C0000000000006F2C0000B6
:1038DC00000000006F2C0000000000006F2C0000A6
:1038EC00000000006F2C0000000000006F2C000096
:1038FC00000000006F2C0000000000006F2C000086
:10390C00000000006F2C0000000000006F2C000075
:10391C00000000006F2C0000000000006F2C000065
:10392C00000000006F2C0000000000006F2C000055
:10393C00000000006F2C0000000000006F2C000045
:10394C00000000006F2C0000000000006F2C000035
:10395C00000000006F2C0000000000006F2C000025
:10396C00000000006F2C0000000000006F2C000015
:10397C00000000006F2C0000000000006F2C000005
:10398C00000000006F2C0000000000006F2C0000F5
:10399C00000000006F2C0000000000006F2C0000E5
:1039AC00000000006F2C0000000000006F2C0000D5
:1039BC00000000006F2C0000000000006F2C0000C5
:1039CC00000000006F2C0000000000006F2C0000B5
:1039DC00000000006F2C0000000000006F2C0000A5
:1039EC00000000006F2C0000000000006F2C000095
:1039FC00000000006F2C0000000000006F2C000085
:103A0C00000000006F2C0000000000006F2C000074
:103A1C00000000006F2C0000000000006F2C000064
:103A2C00000000006F2C0000000000006F2C000054
:103A3C00000000006F2C0000B91D0000832D000059
:083A4C00000000006F2C0000D7
:103A5400890F0000E32C0000EF2C0000032D000070
:103A64000D2D0000172D0000B11100002B2D0000BA
:043A7400000000004E
:103A780000A0105000820D50000405509C31000039
:103A8800010000009C31000000000000BC31000073
:103A980006000000BC310000050000000000002006
:103AA800000000000600010002000000B83A000013
:103AB80000000000AB3B000006000000E04F1600CD
:103AC80000000020B33B000021000000E0EF0220CE
:103AD80000A0105000820D50000405501F00000087
:103AE80000A01050000000000000000000C01050AE
:103AF80001000000FFFF000000820D5000000000E0
:103B08000100000000A00D500000000000A01050AF
:103B180000820D500004055008000000020000005B
:103B2800040000000100000074310000743100003E
:103B38008C310000943100009C3100009C31000061
:103B48002A2A2A20426F6F74696E67206E524620B7
:103B5800436F6E6E6563742053444B2076332E3169
:103B68002E302D366336653562333234393665206A
:103B78002A2A2A0A002A2A2A205573696E67205A97
:103B88006570687972204F532076342E312E39397A
:103B98002D313631323638336434303130202A2AE8
:103BA8002A0A00464C4153485F30005352414D5F4A
:103BB80030006770696F40313061303030006770B5
:103BC800696F4064383230300000071823232323FC
:103BD8002323232323232323230001026D61696EFA
:103BE80000286E756C6C29002A666C6F61742A0057
:103BF8002D2C00000090D003FF0000000F000000F3
:0C3C080003000000140000201400002045
:043C140000000000AC
:043C180015E015E0BE
:040000030000089160
:00000001FF
